:020000040800F2
:10000000B8040020C101000815170008B308000853
:1000100011170008350200086728000800000000DA
:100020000000000000000000000000009126000811
:100030006105000800000000A9170008F927000862
:10004000DB010008DB010008DB010008DB01000820
:10005000DB010008DB0100086505000879050008E0
:10006000DB0100088D050008DB010008DB0100084A
:10007000DB01000839020008DB01000879020008F2
:10008000DB010008DB010008DB010008DB010008E0
:10009000DB010008DB010008DB010008DB010008D0
:1000A000DB010008DB010008DB010008DB010008C0
:1000B000DB01000865280008DB010008DB010008FF
:1000C000DB010008DB010008DB010008DB010008A0
:1000D000DB010008DB010008DB010008DB01000890
:1000E000DB010008051B0008DB010008DB0100083C
:1000F000DB010008DB010008DB010008DB01000870
:10010000DB010008DB010008DB010008DB0100085F
:10011000DB010008DB010008DB010008DB0100084F
:10012000DB010008DB010008DB010008DB0100083F
:10013000DB010008DB010008DB010008DB0100082F
:10014000DB010008DB010008DB010008DB0100081F
:10015000DB010008DB010008DB010008DB0100080F
:10016000DB010008DB010008DB010008DB010008FF
:10017000DB010008DB010008DB010008DB010008EF
:10018000DB010008DB010008DB010008DB010008DF
:10019000DB010008DB010008DB010008DB010008CF
:1001A000DB010008DB010008DB010008DFF80CD0F0
:1001B00000F02EF800480047652D0008B804002024
:1001C0000648804706480047FEE7FEE7FEE7FEE7F1
:1001D000FEE7FEE7FEE7FEE7FEE7FEE7FD27000895
:1001E000AD01000830B50B46014600202022012455
:1001F00009E021FA02F59D4205D303FA02F5491BF5
:1002000004FA02F52844151EA2F10102F1DC30BD0A
:10021000064C074D06E0E06840F0010394E8070053
:1002200098471034AC42F6D3FFF7C4FF4C6800087F
:100230006C68000800BFFEE710B54FF081510B4815
:1002400000F022F980B10121094800F08BFB002168
:10025000064800F061F84FF08151044800F042F880
:10026000002004490968088010BD00004060024079
:10027000005C00407000002010B51449144800F0E4
:1002800003F910B30021124800F046F80F49104856
:1002900000F028F84FF420400E49086007E00D49AF
:1002A0000868411E0B4A116008B903F0DFF90A49DA
:1002B0000A4800F063FB0028F1D00121074800F054
:1002C00051FB002006490968087010BD200000207D
:1002D000706002406C00002004000010005C0040D0
:1002E000740000200246094B9A4201D2084801E0FE
:1002F0000648103801F000531BB1064B0B40C36099
:1003000002E0044B0B408360704700001064024021
:10031000006002407D0F7D0F21B1026842F00102B2
:10032000026003E0026822F00102026070470000F0
:10033000016821F0010101600021016041608160DC
:10034000C1600161212141614A49884204D13D21B6
:10035000484A103A91608CE046491831884205D1EC
:100360004FF47461434A103A916082E04149303160
:10037000884205D14FF474113E4A103A916078E0FA
:100380003C494831884205D14FF07461394A103AEE
:1003900091606EE037496031884204D13649354A70
:1003A000103AD16065E033497831884204D133494D
:1003B000304A103AD1605CE02E499031884204D135
:1003C0002F492C4A103AD16053E02A49A83188427B
:1003D00005D14FF03D51274A103AD16049E02949F3
:1003E000884204D13D21274A083A116041E025495D
:1003F0001831884205D14FF47461224A083A1160DD
:1004000037E020493031884205D14FF474111D4A3C
:10041000083A11602DE01B494831884205D14FF060
:100420007461184A083A116023E016496031884225
:1004300004D11149134A121F11601AE01149783191
:10044000884204D10D490F4A121F116011E00D4975
:100450009031884204D10A490A4A121F116008E00B
:100460000849A831884204D14FF03D51054A121F76
:1004700011607047106002403D000020400F0020D6
:1004800000003D201064024030B503460A460020BB
:1004900000240B4DAB4201D20A4901E00849103952
:1004A00002F000550DB14C6800E00C68064D2C4080
:1004B00004EA02050DB1012000E0002030BD00007B
:1004C00010640240006002407D0F7D0F10B501F006
:1004D00080034BB122B1436943F08003436103E0E1
:1004E000436923F08003436180290BD02AB103685C
:1004F00001F01E042343036004E0036801F01E04BE
:10050000A343036010BD000010B500220268134B26
:100510001A40CC680B6823434C6923438C692343FE
:10052000CC6923430C6A23434C6A23438C6A2343DC
:100530004C6B23438C6B23431A430260426922F0C5
:100540000702D1E90B3423431A4342610B6943602C
:100550004B6883608B68C36010BD00003F801CF057
:100560007047000010B501200249087000F018F82B
:1005700010BD00000700002010B5012002490870DE
:10058000022000F00DF810BD0800002010B5012079
:1005900002490870082000F003F810BD090000208F
:1005A0000149086070470000143C014000212349C4
:1005B0008279002A3AD00A46126803689A430B46A9
:1005C0001A600A1D126803689A430B1D1A600279AB
:1005D00011440A6803681A430A60184A083212680C
:1005E00003689A43154B08331A601A1D1268036892
:1005F0009A43124B0C331A604279102A0ED11A1FFB
:10060000126803681A430D4B08331A601A1D1268EA
:1006100003681A43094B0C331A600DE0074942790D
:1006200011440A6803681A430A6005E0027911441C
:100630000A6803689A430A6070470000003C014062
:1006400010B5024600200023102A03D14FF02044A9
:10065000636E0FE0B2F5807F02D10A4C236809E097
:10066000B2F5805F03D1074C2034236802E0054CCB
:10067000D434236803EA01048C4201D0002000E056
:10068000012010BD840000A00021D0E900231A43FE
:1006900083685B1E42EA4312C36842EA4321014A6F
:1006A00011607047500100A070B5002100220023A6
:1006B0000024D0E901563543C66835430669354301
:1006C0004669354386693543C6693543066A35430D
:1006D000466A45EA0601056835B90568AD00A5F129
:1006E000C045C5F840110DE0D0E907563543466ACC
:1006F00045EA0603294D2B600568AD00A5F1C0450C
:10070000C5F84011056835BB856A2D686D1E866A7F
:100710007668761E45EA0616856AAD686D1E46EA5D
:100720000526856AED686D1E46EA0536856A2D8ABE
:100730006D1E46EA0546856AAD8A6D1E46EA055677
:10074000856A2D7E6D1E46EA0562144D08350668E1
:1007500045F8262020E0856A2D686D1E866A766839
:10076000761E45EA0616856AAD686D1E46EA0526C0
:10077000856A2D8A6D1E46EA0542856AED686D1E02
:100780002E03856AAD8A6D1E46EA0554034D083571
:100790002C60066845F8262070BD0000400100A0CE
:1007A0000449096841EA40014FF02042C2F854115F
:1007B00070470000540100A0F0B50A460021002354
:1007C000002400BF3DE0012505FA01F3156805EAA4
:1007D00003049C4234D105684F000326BE40B54354
:1007E000056015794E00B5400668354305601579FA
:1007F000012D02D01579022D16D185684F000326F0
:10080000BE40B543856055794E00B5408668354396
:100810008560456801268E40B543456045689679F8
:100820008E40B6B235434560C5684F000326BE40D2
:10083000B543C560D5794E00B540C6683543C5603F
:10084000491C1029BFD3F0BDF0B5002300244D078B
:10085000ED0E02FA05F3CE1000F1200555F82650F2
:100860004E07F70E0F26BE40B543CF1000F120060D
:1008700046F82750CE1000F1200555F8265045EADD
:100880000304CE1000F1200545F82640F0BD0246D5
:10089000002013690B400BB1012000E000207047DD
:1008A00041837047018370470AB1018300E04183AF
:1008B000704700BFFEE721B1028842F480620280E7
:1008C00004E002884FF6FF331A400280704770B58B
:1008D00002460024002500230020958A138B1B0468
:1008E00045EA030626F07F4404EA01068E4201D160
:1008F000012000E0002070BD002221F07F42D343A0
:100900008382704721B1028842F00102028004E034
:1009100002884FF6FE731A400280704721B1828828
:1009200042F40062828004E082884FF2FF731A4032
:100930008280704721B1828842F48052828004E034
:1009400082884EF6FF731A408280704721B1028878
:1009500042F48072028004E002884FF6FF631A407E
:100960000280704721B1028842F40072028004E0E4
:1009700002884FF6FF531A40028070470CB50246BA
:10098000002000230193009300920B0F019321F0AC
:100990007F41019B1BB1009B1433009303E0090CC2
:1009A000009B18330093009B1B680B400BB1012088
:1009B00000E000200CBD00002DE9FF4704460D4675
:1009C0000026B1460427DFF8CC80A6884FF6C07019
:1009D0000640684600F04AFFDDF808802E48B8FB64
:1009E000F0F01FFA80F946EA0906A68020884FF643
:1009F000FE710840208000262849286888420CD8CB
:100A000028684000B8FBF0F087B2042F00DA042712
:100A10003E4309F10100208427E0E8884BF6FF718E
:100A2000884206D1286800EB4000B8FBF0F087B29E
:100A300009E0286800EBC00101EB0010B8FBF0F002
:100A400087B247F48047C7F30B0008B947F00107A6
:100A500047F4004006434FF4967009FB00F04FF452
:100A60007A7190FBF1F0401C2084A683208840F02E
:100A70000100208026884FF6F5300640A888698955
:100A8000084306432680A889298908432081BDE8B8
:100A9000FF87000000127A0040420F00A08601008C
:100AA0000146088AC0B2704712B141F0010101E06D
:100AB00001F0FE0101827047018270471CB50121DF
:100AC0006F2000F073FE0E2203215048FFF7BCFE9A
:100AD0000E2204214D48FFF7B7FE0E2206214B4897
:100AE000FFF7B2FE0E220B214848FFF7ADFE0E22A3
:100AF0000C214648FFF7A8FE41F65800009002205E
:100B00008DF805008DF8040000208DF806008DF8A2
:100B1000070069463D48FFF74FFE092200213C4887
:100B2000FFF792FE092201213948FFF78DFE0E22C0
:100B300008213748FFF788FE0E2209213448FFF7C5
:100B400083FE0E220A213248FFF77EFE0E220B2181
:100B50002F48FFF779FE40F60370009069462C4855
:100B6000FFF72AFE0E2206212A48FFF76DFE0E220D
:100B700007212848FFF768FE0E220A212548FFF7C3
:100B800063FE4FF49860009069462248FFF714FE18
:100B90000E2203212048FFF757FE0E2206211E4891
:100BA000FFF752FE4820009069461B48FFF704FEFD
:100BB0000E220A211948FFF747FE4FF4806000908B
:100BC00069461648FFF7F8FD0E2206211448FFF784
:100BD0003BFE0E2207211248FFF736FE09220A21AA
:100BE0000F48FFF731FE0E220B210D48FFF72CFEB8
:100BF00009220C210A48FFF727FE4FF4E650009027
:100C000069460748FFF7D8FD1CBD00000000024000
:100C10000004024000080240000C024000140240A0
:100C20000018024010B5044624B904210448FFF717
:100C300037FE03E004210248FFF734FE10BD000038
:100C4000000802400146002000BF04E0044B1B687E
:100C500023F81010401CB0F5A02FF7D37047000008
:100C60006000002030B50546002409E0202221461E
:100C7000284600F047F8094800688088204484B27C
:100C8000F02C09DA054800688088204480B20349C6
:100C9000096889888842E9DA30BD000058000020E0
:100CA0001CB501210C2000F081FD042000900220E1
:100CB0008DF8050001208DF8040000208DF8060055
:100CC0008DF8070069460848FFF776FD4FF400509D
:100CD000009069460548FFF76FFD01220421024894
:100CE00000F006F81CBD000000080240000C0240A5
:100CF00070B504460D461646324629462046FFF793
:100D0000D3FD70BD70B505460E461446A4F1200013
:100D1000C4B207480068016805480068C08860439D
:100D200001EB40023146284600F040F870BD00005B
:100D3000580000207FB504460D461646324605A1F0
:100D4000684601F093FD6A462946204600F006F801
:100D50007FBD000025303264000000002DE9F04125
:100D600006460C4615461BE000F08CF88088604370
:100D700087B200F087F8C08870431FFA80F82A789D
:100D800039464046FFF7BEFF601C84B200F07AF897
:100D900080886043F02802DB0024701C86B26D1C42
:100DA00028780028E0D1BDE8F08100002DE9F0416D
:100DB00004460D46134600BF002200BF0020C4EBCE
:100DC00004177E01284400214DE000223FE0294F16
:100DD0003F68BF884FF00C0C97FBFCF74FEAC70C3D
:100DE000802707FA0CF7174133F811C007EA0C0700
:100DF00027B9204F3F68BF880C2F0DDD33F81170E5
:100E00004FF0010C0CFA02FC07EA0C078FB9194FDE
:100E10003F68BF880C2F0CDD174F3F88DFF85CC0A0
:100E2000DCF800C04FF0020808FB00CC2CF806707C
:100E30000BE0134F3F88DFF844C0DCF800C04FF0F0
:100E4000020808FB00CC2CF80670401C521C094F0D
:100E50003F68BF889742BAD8064F3F68BF88C7F13E
:100E6000F0073844491C034F3F68FF888F42ACD8D5
:100E7000BDE8F081580000205E00002060000020E6
:100E80005C00002001480068704700005800002006
:100E900000B58FB0FFF704FF0020FFF7C3FE01206D
:100EA000FFF7C0FE00F0DAF900F092F801218806A1
:100EB00000F0BCFC0121C80500F078FCFFF7FEFD46
:100EC00001F034FA002000900190029003900C9001
:100ED0000D900E9004220721C02000F073FD4FF406
:100EE000003000F05DFD012000F066FD00BF3D20F8
:100EF00000F030FD0028FAD0092004900120059070
:100F00001D2006900320079040F20D10089040F23B
:100F10004310099040F217100A9040F247100B90CE
:100F2000684600F095FA0FB000BD000000B591B022
:100F30001E20019040F20D1002900420039040F218
:100F40004310049002200590FF2006900020079097
:100F5000089009900A904FF480600B9005200C9047
:100F600040F2E3100E90C01E0F904FF4A07010904E
:100F70004FF050400D9001A9124800F038FB124884
:100F80000D904FF4C0600B9007200C9001A90D4804
:100F9000803000F02CFB012000F0B4FB0121094857
:100FA00000F01AFB01210748803000F015FB0120FA
:100FB00000F0A8FB054800F0BBF9012000F036FA6C
:100FC00011B000BD84680140000005D03800002049
:100FD00010B5CA2000F0CEF9C32000F0F1F90820C6
:100FE00000F0EEF9502000F0EBF9CF2000F0C2F94C
:100FF000002000F0E5F9C12000F0E2F9302000F017
:10100000DFF9ED2000F0B6F9642000F0D9F90320F3
:1010100000F0D6F9122000F0D3F9812000F0D0F9C9
:10102000E82000F0A7F9852000F0CAF9002000F0C0
:10103000C7F9782000F0C4F9CB2000F09BF93920E3
:1010400000F0BEF92C2000F0BBF9002000F0B8F948
:10105000342000F0B5F9022000F0B2F9F72000F0DA
:1010600089F9202000F0ACF9EA2000F083F9002093
:1010700000F0A6F9002000F0A3F9B12000F07AF901
:10108000002000F09DF91B2000F09AF9B62000F036
:1010900071F90A2000F094F9A22000F091F9C02023
:1010A00000F068F9102000F08BF9C12000F062F91F
:1010B000102000F085F9C52000F05CF9452000F013
:1010C0007FF9152000F07CF9C72000F053F990203B
:1010D00000F076F9362000F04DF9C82000F070F9E4
:1010E000F22000F047F9002000F06AF9B02000F08B
:1010F00041F9C22000F064F9B62000F03BF90A2063
:1011000000F05EF9A72000F05BF9272000F058F905
:10111000042000F055F92A2000F02CF9002000F0FE
:101120004FF9002000F04CF9002000F049F9EF20C1
:1011300000F046F92B2000F01DF9002000F040F9E6
:10114000002000F03DF9012000F03AF93F2000F0C6
:1011500037F9F62000F00EF9012000F031F90020F7
:1011600000F02EF9062000F02BF92C2000F002F9F7
:10117000C82001F045FD262000F0FCF8012000F019
:101180001FF9E02000F0F6F80F2000F019F92920EF
:1011900000F016F9242000F013F90C2000F010F9EB
:1011A0000E2000F00DF9092000F00AF94E2000F0A1
:1011B00007F9782000F004F93C2000F001F909203B
:1011C00000F0FEF8132000F0FBF8052000F0F8F81E
:1011D000172000F0F5F8112000F0F2F8002000F0E0
:1011E000EFF8E12000F0C6F8002000F0E9F8162042
:1011F00000F0E6F81B2000F0E3F8042000F0E0F82F
:10120000112000F0DDF8072000F0DAF8312000F0BE
:10121000D7F8332000F0D4F8422000F0D1F80520B0
:1012200000F0CEF80C2000F0CBF80A2000F0C8F84F
:10123000282000F0C5F82F2000F0C2F80F2000F0A1
:10124000BFF8112000F096F8C82001F0D9FC292041
:1012500000F090F82C2000F08DF810BD00B587B09C
:101260000121202000F0A2FA0121080500F0DEFA99
:101270008020009001208DF8050002208DF80400E8
:1012800000208DF8060002208DF8070069462648E8
:10129000FFF792FA4FF48070009069462248FFF7FA
:1012A0008BFA4FF40070009069461F48FFF784FAEC
:1012B000052207211C48FFF7C7FA052208211A4812
:1012C000FFF7C2FA052209211748FFF7BDFA1748B0
:1012D00001F0D0F81548008800F0400010BB002055
:1012E000ADF808004FF48270ADF80A000020ADF8A8
:1012F0000C00ADF80E00ADF810004FF40070ADF822
:1013000012001820ADF814000020ADF816000720D8
:10131000ADF8180002A9054801F00FF901210348B2
:1013200001F09CF807B000BD0014024000500140DD
:1013300001490860704700005800002038B94FF09C
:101340005041064A11600021054A116005E0054937
:10135000024A11600121024A1160704760000020BA
:1013600064000020000005D001490880704700009B
:101370005C00002010B5044600224FF400510E48D6
:10138000FFF7B6FC0020FFF74DFC21460B4801F0AB
:10139000D2F800BF0221094801F0C4F80028F9D0B2
:1013A00000BF8021054801F0BDF80028F9D10120D7
:1013B000FFF738FC10BD0000000C02400050014057
:1013C00010B50446012251030D48FFF791FC00209F
:1013D000FFF728FC21460B4801F0ADF800BF0221C1
:1013E000084801F09FF80028F9D000BF8021054887
:1013F00001F098F80028F9D10120FFF713FC10BD87
:10140000000C02400050014030B10749096841F02A
:101410000101054A116005E00349096821F0010155
:10142000014A1160704700001868014030B1074957
:10143000096841F48031054A116005E003490968F3
:1014400021F48031014A11607047000018680140A2
:10145000F0B50021002200230024002500265B4F68
:101460003F68DFF86CC107EA0C07DFF860C1CCF811
:101470000070078A390467463F68D0F814C04CEA08
:10148000010C47EA0C07DFF844C1CCF800700CF1FE
:1014900004073F68DFF838C107EA0C07DFF82CC102
:1014A0000CF1040CCCF80070078B3A0467463F68D7
:1014B000D0F81CC04CEA020C47EA0C07DFF80CC15C
:1014C0000CF1040CCCF800700CF104073F68DFF855
:1014D00000C107EA0C07DFF8F4C00CF1080CCCF8E7
:1014E0000070078C3B0467463F68D0F824C04CEA84
:1014F000030C47EA0C07DFF8D4C00CF1080CCCF859
:1015000000700CF104073F68DFF8C4C007EA0C075D
:10151000DFF8B8C00CF10C0CCCF80070078D3C045F
:101520006746D7F800C0C76A27434CEA070C274F25
:101530000C37C7F800C03F1D3F68DFF898C007EAC6
:101540000C07DFF888C00CF1100CCCF80070D0E963
:10155000007C47EA0C07D0F808C047EA0C07D0F82F
:101560000CC047EA0C07DFF864C00CF1100CDCF883
:1015700000C047EA0C07DFF854C00CF1100CCCF89F
:101580000070476B3D02078E3E04104F24373F68C2
:1015900007F07F47DFF834C00CF1240CCCF8007062
:1015A00046EA0507D0F838C047EA0C07DFF81CC048
:1015B0000CF1240CDCF800C047EA0C07DFF80CC083
:1015C0000CF1240CCCF80070F0BD0000086801405C
:1015D00000F800F08F88FE0F21B1026842F001028E
:1015E000026003E0026822F00102026070472DE908
:1015F000F041002400250026002200270023B1F836
:1016000004C04FEA0C44D0F804C00CF4704CC0F88D
:1016100004C0D1F800C04CEA040CC0F804C0B1F812
:101620000CC04FEA0C45D0F808C00CF4704CC0F860
:1016300008C0D1F808C04CEA050CC0F808C0D0F8C2
:1016400010C02CF0070CC0F810C0D1F810C0C0F8C2
:1016500010C0D1F81CC04FEA0C26B1F820C04FEAE8
:101660000C4291F824C04FEA0C67D0F818C09C4691
:10167000C0F818C0D1F818C04CEA060C4CEA020CAD
:101680004CEA070CC0F818C0D0F814C02CF0FF0CBE
:10169000C0F814C0D1F814C0C0F814C0D0F81CC0F1
:1016A00040F207782CEA080CC0F81CC0D1E90AC83F
:1016B0004CEA080CC0F81CC0D0F828C09C46C0F802
:1016C00028C0D1F830C0C0F828C0B1F838C04FEAFF
:1016D0000C43D0F82CC00CF0E02CC0F82CC0D1F892
:1016E00034C04CEA030CC0F82CC0D0F830C06FF303
:1016F0000A0CC0F830C0D1F83CC0C0F830C0BDE81A
:10170000F081000001490860704700002468014032
:1017100000BFFEE77047000070B5002100230F22D4
:10172000C4781CB3174C246804F4E064C4F5E06486
:10173000C4F30721C1F10404E3B20A4144789C4098
:10174000E1B28478144021430C07210E0E4C057839
:101750006155047804F01F050124AC4005786D1133
:10176000AD0005F1E025C5F8004109E0047804F07A
:101770001F050124AC40054D0678761145F826403A
:1017800070BD00000CED00E000E400E080E100E04E
:1017900010B50121002000F025FF10BD01490862AD
:1017A0007047000000000E427047000029B1064A51
:1017B00012680243044B1A6004E0034A1268824331
:1017C000014B1A60704700003038024029B1064AC8
:1017D00012680243044B1A6004E0034A1268824311
:1017E000014B1A60704700003838024029B1064AA0
:1017F00012680243044B1A6004E0034A12688243F1
:10180000014B1A60704700004038024029B1064A77
:1018100012680243044B1A6004E0034A12688243D0
:10182000014B1A60704700002038024029B1064A77
:1018300012680243044B1A6004E0034A12688243B0
:10184000014B1A60704700004438024029B1064A33
:1018500012680243044B1A6004E0034A1268824390
:10186000014B1A607047000024380240F0B5002197
:1018700000220024022500260223324F3F6807F091
:101880000C0121B1042905D0082937D105E02E4FDC
:10189000076036E02D4F076033E02A4F3F1F3F6857
:1018A000C7F38056274F3F1F3F6807F03F036EB1D5
:1018B000264FB7FBF3F7DFF88CC0ACF1040CDCF873
:1018C00000C0CCF3881C07FB0CF40CE01E4FB7FBE8
:1018D000F3F7DFF870C0ACF1040CDCF800C0CCF317
:1018E000881C07FB0CF4174F3F1F3F68C7F30147E5
:1018F0007F1C7D00B4FBF5F7076002E0124F076024
:1019000000BF00BF0F4F3F6807F0F0010909104FFB
:101910007A5C0768D74047600A4F3F6807F4E05198
:10192000890A0B4F7A5C4768D7408760054F3F684C
:1019300007F46041490B064F7A5C4768D740C7609F
:10194000F0BD0000083802400024F40000127A00C4
:101950001500002010B501460022002300204A1186
:10196000012A02D10A4C236808E0022A03D1084C5C
:101970007034236802E0064C7434236801F01F02BF
:10198000012494401C400CB1012000E0002010BD57
:10199000003802400149086070470000800E47424D
:1019A00001460020034A106820F4403008431060CC
:1019B000704700008C3802400149086770470000FA
:1019C0000000474210B5830143EA016343EA027312
:1019D000014C236010BD00008838024001490860B6
:1019E000704700003C0E4742002100F44072B2F5FF
:1019F000407F08D1094A116821F4F811084A0240D1
:101A00001143064A1160054A68321268C0F30B039D
:101A10001A43024B68331A607047000008380240CE
:101A2000FFFCFF0F00B587B04FF400300590002099
:101A30008DF8180008208DF8190001208DF81A0083
:101A400005A8FEF7B3FD29208DF8000000208DF8D1
:101A500001008DF8020001208DF803006846FFF7B1
:101A60005BFE4FF08030029001AA4FF4807101209C
:101A700000F0E8F90121080300F080F901210802D3
:101A800000F006F84FF4807000F07EF807B000BD5B
:101A900038B502460024009400230020CA24184DC3
:101AA0002C6053242C6041B1154C1C3C2468144319
:101AB000134D1C3D2C6001201EE0114C1C3C246881
:101AC00094430F4D1C3D2C6000BF0D4C183C246806
:101AD00004EA1223009C641C0094009CB4F5803F2F
:101AE00001D0002BF1D0064C183C246804EA1224E3
:101AF0000CB9002000E00120FF24014D2C6038BD0E
:101B00002428004010B54FF4805000F0EFF8A8B141
:101B10004FF4805000F046F802F0BAF80A48007816
:101B200003280BD109480078401C08490870084672
:101B30000078022802D10120054908704FF40030D6
:101B4000FEF72EFD10BD000006000020130000204F
:101B500014000020014600BF080900EB800042008D
:101B600001F00F001044C0B270470146002204E0AB
:101B7000501CC2B2A1F10A00C1B20A29F8DA10075A
:101B800041EA10607047000081B241F08001044AD0
:101B9000126802F0800262EA0101014A1160704796
:101BA0000C280040002101098AB242F08002044B57
:101BB0001B6803F0800363EA0202014B1A6070475E
:101BC0000C28004000B585B001210807FFF70EFE84
:101BD0000120FFF7E3FD0120FFF7DCFE4FF400706A
:101BE000FFF702FF0120FFF7F9FE7F200390F920A5
:101BF00004900020029002A800F0F2F823208DF853
:101C0000040059208DF8050040208DF8060001A938
:101C1000012000F0F1F907208DF8000010208DF868
:101C2000010028208DF8020017208DF80300694676
:101C3000012000F07DF905B000BD000008B50022CC
:101C4000009200200021104A126802F04002CAB936
:101C5000421E0D4B1A6000BF0B4A126802F0400191
:101C6000009A521C0092009AB2F5803F01D00029E0
:101C7000F2D0054A126802F040020AB1012002E0E7
:101C8000002000E0012008BD0C2800400348006847
:101C900020F0800001490860704700000C280040D7
:101CA00070B506460C4600250E4800680E4900EA4D
:101CB0000105280CE070C5F30420607005F03F00BA
:101CC000A070C5F3423020705EB9E078FFF742FFA4
:101CD000E0706078FFF73EFF6070A078FFF73AFF92
:101CE000A07070BD042800403FFFFF0030B50146E2
:101CF0000020002200230C4C246804F004020A4C4B
:101D0000383C24680C4002EAD13544EA0503064C0D
:101D1000343C246804EA11121BB194B20CB10120C6
:101D200000E0002030BD00004028004070B50646AD
:101D30000C4600250F4800680F4900EA0105C5F36D
:101D400005402070C5F30620607005F07F00A0708C
:101D500005F48000000CE0705EB92078FFF7FAFE11
:101D600020706078FFF7F6FE6070A078FFF7F2FE53
:101D7000A07070BD002800407F7F7F00CA22174BF3
:101D80001A6053221A6091B1144A1C3A126820F06A
:101D900004031A43114B1C3B1A60104A1C32126890
:101DA00000F004031A430D4B1C331A6011E00B4A78
:101DB0001C3A126820F004039A43084B1C3B1A603B
:101DC000064A1C32126800F004039A43034B1C338A
:101DD0001A60FF22014B1A6070470000242800405F
:101DE00030B504460025CA20154908605320086014
:101DF000FFF724FF00B91DE011481C38006820F0EF
:101E000040000F491C3908600846006821680843F3
:101E10000B491C3908600A491439A0680860084653
:101E20000068A18840EA0140054914390860FFF7BD
:101E30002DFF0125FF2002490860284630BD000023
:101E4000242800402DE9F04105460E46144600279F
:101E500065B93648006800F0400000B102E000209B
:101E6000E07000BFA06800B919E018E02F480068D2
:101E700000F0400020B12078FFF76CFE074602E03A
:101E80000020E07000BFA06820B9207BFFF762FE51
:101E9000074604E0207BFFF75DFE074600BF95B1D3
:101EA00020780004617840EA0120A1780843E178B5
:101EB00040EA0140217B40EA0160A1680843616873
:101EC00040EA01071BE02078FFF74FFE4FEA004889
:101ED0006078FFF74AFE48EA0028A078FFF745FE41
:101EE00048EA0008E07848EA0048207BFFF73DFE1A
:101EF00048EA0060A1680843616840EA0107CA2017
:101F00000A491C31086053200860B6F5807F03D170
:101F100006481430076002E0044818300760FF20CC
:101F200002491C310860BDE8F0810000082800402B
:101F30002DE9F04105460C46002600274DB9607892
:101F400000F01000102804D1607820F010000A3052
:101F5000607005B908E06078FFF7FCFD0646A078E0
:101F6000FFF7F8FD064600BF55B1E0780004617840
:101F700040EA0120A1780843217840EA413611E087
:101F8000E078FFF7F2FD4FEA00486078FFF7EDFDDB
:101F900048EA0028A078FFF7E8FD48EA0008207822
:101FA00048EA4036CA201249086053200860FFF70B
:101FB00045FE08B9002714E00E4830400C4920398E
:101FC0000860FFF763FE0A481C38006800F0200034
:101FD00030B900F079F808B9002702E0012700E0E5
:101FE0000127FF20024908603846BDE8F081000063
:101FF000242800403FFFFF002DE9F04105460C4634
:10200000002600274DB92E48006800F0400000B1BE
:1020100002E00020E07000BF0DE02948006800F0F9
:10202000400020B12078FFF795FD064602E0002031
:10203000E07000BF00BF55B120780004617840EA2D
:102040000120A1780843E17840EA014611E02078B8
:10205000FFF78BFD4FEA00486078FFF786FD48EAFE
:102060000028A078FFF781FD48EA0008E07848EAF8
:102070000046CA2012491C31086053200860FFF74F
:10208000DDFD08B9002713E00E4830400C4908393F
:102090000860FFF7FBFD0A48006800F0200030B937
:1020A00000F012F808B9002702E0012700E001273C
:1020B000FF2003491C3108603846BDE8F08100006C
:1020C000082800407F7F7F0008B500220092002092
:1020D0000021CA22134B1A6053221A60114A183A7F
:1020E000126822F0A0020F4B183B1A6000BF0D4A85
:1020F000183A126802F02001009A521C0092009ACD
:10210000B2F5003F01D00029F1D0064A183A126812
:1021100002F020020AB1012000E00020FF22014B62
:102120001A6008BD242800401CB501217E20FFF75D
:102130003DFB02208DF804008DF8050000208DF88D
:1021400006008DF807000C2205217248FEF77CFB83
:102150000C2206216F48FEF777FB6020009069464D
:102160006C48FEF729FB0C2200216B48FEF76CFB44
:102170000120009069466848FEF71EFB0C220021F2
:102180006648FEF761FB0C2201216448FEF75CFB08
:102190000C2208216148FEF757FB0C2209215F48F9
:1021A000FEF752FB0C220A215C48FEF74DFB0C2285
:1021B0000E215A48FEF748FB0C220F215748FEF724
:1021C00043FB4CF20370009069465448FEF7F4FA62
:1021D0000C2200215248FEF737FB0C220121504807
:1021E000FEF732FB0C2207214D48FEF72DFB0C2297
:1021F00008214B48FEF728FB0C2209214848FEF72E
:1022000023FB0C220A214648FEF71EFB0C220B2161
:102210004348FEF719FB0C2211464148FEF714FB18
:102220000C220D213E48FEF70FFB0C220E213C48EC
:10223000FEF70AFB0C220F213948FEF705FB4FF68B
:102240008370009069463648FEF7B6FA0C220021EA
:102250003448FEF7F9FA0C2201213248FEF7F4FA6D
:102260000C2202212F48FEF7EFFA0C2203212D4801
:10227000FEF7EAFA0C2204212A48FEF7E5FA0C22BE
:1022800005212848FEF7E0FA0C220B212548FEF72D
:10229000DBFA0C2211462348FEF7D6FA0C220D2158
:1022A0002048FEF7D1FA0C220E211E48FEF7CCFA88
:1022B0000C220F211B48FEF7C7FA4FF63F00009093
:1022C00069461848FEF778FA0C2200211648FEF7F6
:1022D000BBFA0C2201211448FEF7B6FA0C220421A5
:1022E0001148FEF7B1FA0C2205210F48FEF7ACFAAF
:1022F0000C2208210C48FEF7A7FA0C220F210A48ED
:10230000FEF7A2FA48F23310009069460648FEF73D
:1023100053FA1CBD0004024000080240000C0240B9
:1023200000100240001402400018024000B593B0B3
:10233000FFF7FAFE01210846FFF748FA0220019054
:1023400007200290042003900720049002200590AB
:1023500006900790012008900020099004200A9020
:1023600010200B9040200C904FF4C0700D90002076
:102370000E904FF400600F90002010904FF400502A
:10238000119001A8129008A8FEF78EF900F002F84B
:1023900013B000BD1FB5002401200090082001905B
:1023A000012002900020039000BF20210120FEF7B1
:1023B00047F90028F9D16846FEF766F90A2000F0CF
:1023C0002DFC0220009008200190012002900020A6
:1023D000039000BF20210120FEF732F90028F9D137
:1023E0006846FEF751F90320009008200190042070
:1023F00002900020039000BF20210120FEF720F969
:102400000028F9D16846FEF73FF900BF20210120DE
:10241000FEF716F90028F9D16846FEF735F940F2C3
:1024200031240420009008200190012002900394A0
:1024300000BF20210120FEF703F90028F9D16846EA
:10244000FEF722F940F26A50FEF7AAF900BF2021F8
:102450000120FEF7F5F80028F9D11FBD21B102884F
:1024600042F04002028004E002884FF6BF731A4037
:102470000280704710B504462448844208D10121E7
:102480008014FFF7E3F90021A014FFF7DFF93CE027
:102490001F48844208D101210014FFF7B7F9002139
:1024A0002014FFF7B3F930E01A48844208D1012123
:1024B000C013FFF7ABF90021E013FFF7A7F924E001
:1024C0001548844208D101214014FFF7BFF90021CB
:1024D0006014FFF7BBF918E01048844209D10121CC
:1024E0000805FFF7B3F900214FF48010FFF7AEF9AC
:1024F0000BE00B48844208D101214805FFF7A6F9FB
:1025000000214FF40010FFF7A1F910BD0030014089
:1025100000380040003C00400034014000500140C1
:10252000005401400246002013890B400BB10120EA
:1025300000E0002070478181704710B500220288BA
:1025400002F441520B884C8823438C882343CC8867
:1025500023430C8923434C8923438C892343CC890F
:1025600023431A430280838B4FF2FF7423408383FB
:102570000B8A038210BD00001CB504460E4951F8B9
:1025800024000121FFF712F90C4830F814000090E4
:1025900001208DF8040000208DF8060001208DF840
:1025A000070002208DF80500054951F8240069460E
:1025B000FEF702F91CBD0000643E0008603E000802
:1025C0002800002010B50446044A32F81410044ACA
:1025D00052F82400FEF75BF910BD00006C3E0008C5
:1025E0003000002030B585B004460D46214951F831
:1025F00024000121FFF7DAF801218803FFF716F91B
:1026000000208DF8100002208DF813001A4830F8D1
:1026100014000390194951F8240003A9FEF7CCF8DF
:10262000012D24D1164A115D164A105D00F032F8D2
:10263000154830F81400019000208DF8080008209B
:102640008DF8090001208DF80A0001A8FDF7AEFF02
:102650000E48005D8DF800000F208DF801008DF808
:10266000020001208DF803006846FFF755F805B019
:1026700030BD0000703E00086C3E000830000020B5
:10268000773E0008763E0008743E0008783E000859
:102690007047000030B500228B071C0F0F2303FA90
:1026A00004F20B4B8C1053F824309343084C8D10DC
:1026B00044F8253023468C1053F824308C07240F1F
:1026C00000FA04F42343024C8D1044F8253030BD49
:1026D000083801400CB50020019000904248006885
:1026E00040F480304049086000BF3F48006800F473
:1026F000003000900198401C0190009818B9019892
:10270000B0F5A04FF1D13848006800F4003010B1A6
:102710000120009001E0002000900098012803D1E2
:1027200032483149091D08602F484030006840F0A8
:1027300080502D49403108602D48006840F44040E9
:102740002B4908602848083000682749083108608C
:102750000846006840F4004008600846006840F4FD
:10276000A05008602048006840F080701E49086052
:1027700000BF1D48006800F000700028F9D01C4818
:10278000006840F480301A49086000BF184840686B
:1027900000F480300028F9D01548006840F400307B
:1027A0001349086000BF1248406800F40030002858
:1027B000F9D040F205700F4908600B4808300068F6
:1027C00020F003000849083108600846006840F01E
:1027D0000200086000BF04480830006800F00C00E8
:1027E0000828F8D10CBD000000380240085A400704
:1027F00000700040003C02407047000010B51548D2
:10280000006840F47000134908601348006840F005
:1028100001001149086000200F49083108600E4886
:1028200000680E4908400C4908600D48091D086001
:10283000081F006820F48020091F08600020064956
:102840000C310860FFF746FF4FF000600149803906
:10285000086010BD88ED00E000380240FFFFF6FE82
:1028600010300024704700BFFEE700000FB4084B93
:1028700010B504A902AA039800F01CF8044602A9A6
:10288000002000F0B8F9204610BC5DF814FB0000F1
:10289000F72B000802E008C8121F08C1002AFAD16D
:1028A00070477047002001E001C1121F002AFBD1D0
:1028B000704700002DE9FF4F8BB088460546002683
:1028C00006E025280BD0DDE90D1290476D1C761C23
:1028D00028780028F5D10FB03046BDE8F08F0024ED
:1028E000A146A2460122AE4900E0044315F8013F8B
:1028F000203B02FA03F00842F7D128782A2810D0AA
:102900006FF02F022878A0F13001092915D809EBC2
:10291000890102EB410144F0020400EB01096D1C46
:10292000F0E758F8041B5FEA010903D544F40054AA
:10293000C9F1000944F002046D1C28782E2817D133
:1029400015F8010F44F004042A280ED06FF02F026E
:102950002878A0F1300109290AD80AEB8A0102EB94
:10296000410100EB010A6D1CF2E758F804AB6D1C45
:1029700028786C280FD006DC4C2817D068280DD09A
:102980006A2814D104E0742810D07A280FD10DE001
:1029900044F400140AE044F4801401E044F44014C8
:1029A0006978814202D104F580146D1C6D1C287871
:1029B000692865D006DC00288DD0632827D06428DC
:1029C00006D15DE06E2808D073282AD0752877D00C
:1029D000DDE90D129047761CE0E0C4F302500228B6
:1029E00009D003280DD0D8F8001004280DD00E60AF
:1029F00008F10408D2E0D8F80010F217C1E900622B
:102A0000F6E7D8F800100E80F2E70E70F0E718F83D
:102A1000041B8DF8001000208DF80100EB4601200A
:102A200003E058F804BB4FF0FF3061074FF0000798
:102A300001D40AE07F1C57450DDA8742FADB1BF808
:102A400007100029F6D106E07F1C8742FCDB1BF84B
:102A500007100029F8D1DDE90D23A9EB0700814615
:102A6000214600F0B1F83044C61904E0DDE90D124A
:102A70001BF8010B90477F1EF8D22146484688E09C
:102A800058F8040BC4F302514FF00A0B032900D18C
:102A900000B2042900D140B2002802DA40422D21C0
:102AA00002E0210505D52B218DF82410012104E039
:102AB00006E0E10710D02021F6E708AF089113E007
:102AC00058F8040BC4F302514FF00A0B032900D14C
:102AD00080B2042900D1C0B20021EEE75946FDF7CB
:102AE00081FB303107F8011D0028F7D1ADEB07005D
:102AF00000F1200B600702D524F4803401E04FF090
:102B0000010ADA4502DDAAEB0B0000E00020824654
:102B100000EB0B0108980144A9EB01000A90E003C7
:102B200006D4DDE90D2321460A9800F04DF806444D
:102B30004FF0000908E009A911F80900DDE90D12BC
:102B4000904709F10109761C08998945F3DBE003F8
:102B50000CD5DDE90D2321460A9800F035F806442E
:102B600004E0DDE90D1230209047761CBAF1000137
:102B7000AAF1010AF5DC05E0DDE90D1217F8010BF9
:102B80009047761CBBF10001ABF1010BF4DC0A9815
:102B90002146DDE90D2300F005F806446D1C97E69B
:102BA000092801002DE9F041044600251E4617467C
:102BB000880404D405E039462020B0476D1C641E0B
:102BC000F9D52846BDE8F0812DE9F04104460025FD
:102BD0001E469046C80301D5302700E02027880410
:102BE00004D505E041463846B0476D1C641EF9D552
:102BF0002846BDE8F0810A68531C0B6010707047CE
:102C000001B581B0002000900198009002E000988A
:102C1000401E009000980028F9D10CBD01B581B08C
:102C200000200090054901984843009002E0009878
:102C3000401E009000980028F9D10CBDA08601002C
:102C400000B585B001210420FEF7B0FD0121880305
:102C5000FEF7ECFD00208DF8040001208DF8070040
:102C6000022000908DF8050069461248FDF7A4FD8A
:102C700001210220FFF70EFD0220039000208DF8B5
:102C800010000C208DF8110001208DF8120003A80F
:102C9000FDF78CFC07208DF8080001208DF8090055
:102CA0008DF80A008DF80B0002A8FEF735FD05B07F
:102CB00000BD00000008024000B585B001210420DD
:102CC000FEF774FD01218803FEF7B0FD00208DF8AA
:102CD000040001208DF807000820009002208DF8E4
:102CE000050069461148FDF767FD03210220FFF743
:102CF000D1FC0820039000208DF810000C208DF8E6
:102D0000110001208DF8120003A8FDF74FFC0920E7
:102D10008DF8080001208DF809008DF80A008DF863
:102D20000B0002A8FEF7F8FC05B000BD0008024049
:102D300038B50020009000240AE009480588681C86
:102D4000074A108029460122684600F005FD641CF0
:102D5000062CF2DB02480088801F0149088038BD3C
:102D600000000020FEF714FDFEF792F8FEF7DEF8F3
:102D70000120FEF749FB0120FEF7E0FA0020FFF7F3
:102D8000FBFB0120FFF7F8FBFEF71CFFFEF74AFEF6
:102D90004FF6FF70FDF756FFFFF752FFFFF78CFF6E
:102DA00000F046FAFFF7C4FF22E2FE48007805284B
:102DB0007ED2DFE800F00324502D8100FA4800782D
:102DC000012806D10020F84908700120F549087053
:102DD00014E0F6480078012806D10020F349087075
:102DE0000220F049087009E0F1480078012805D177
:102DF0000020EF4908700420EA490870F7E100F06C
:102E0000A1FE0320E74908700020EA490870EEE1BE
:102E100005E0E9480078012801D100F0F7FE002024
:102E2000FFF7D0FB0128F4D0FEF72CF8C08880040F
:102E3000040C2046FDF716FFFEF724F8C08800EBCF
:102E4000800084B22046FDF70DFF0020DA490870AB
:102E5000D4490870CBE100F057FF2AE0D34800784E
:102E6000012826D10020D1490870FEF70BF8C08850
:102E7000C004040C2046FDF7F5FEFEF703F8C088F9
:102E800000EBC00084B22046FDF7ECFEFDF7FAFF30
:102E9000C08800EB80004004040C2046FDF7E2FEF1
:102EA0000020C1490870C2490870BE49087001E09D
:102EB0009CE1D3E700BF9AE10020FEF78FFD00F010
:102EC000E7FE00F0A3FE4FF47840FEF74DFABB4852
:102ED000027806210120FDF72DFF16E0B3480078A7
:102EE000012812D10020B1490870B4480078401C74
:102EF0003B2190FBF1F201FB1200B049087008463B
:102F0000027806210120FDF715FFA9480078002866
:102F1000E4D00020FEF728FAA84802780621012014
:102F2000FDF708FF0020A24908704FF47840FEF733
:102F30001BFAA348027803210120FDF7FBFE16E0EF
:102F40009A480078012812D10020984908709C48BE
:102F50000078401C3B2190FBF1F201FB12009849E4
:102F600008700846027803210120FDF7E3FE90482F
:102F700000780028E4D00020FEF7F6F990480278A7
:102F800003210120FDF7D6FE0020894908704FF487
:102F90007840FEF7E9F98B48027800210120FDF71F
:102FA000C9FE16E081480078012812D100207F492F
:102FB000087084480078401C182190FBF1F201FB56
:102FC0001200804908700846027800210120FDF7B0
:102FD000B1FE774800780028E4D00020FEF7C4F95D
:102FE0007848027800210120FDF7A4FE00207049F6
:102FF00008704FF47840FEF7B7F97348027809215A
:103000000520FDF797FE16E068480078012812D1E8
:103010000020664908706C480078401C642190FBD1
:10302000F1F201FB12006849087008460278092194
:103030000520FDF77FFE5E4800780028E4D00020E0
:10304000FEF792F96048027809210520FDF772FE2B
:103050000020574908704FF47840FEF785F95B4827
:10306000027806210520FDF765FE16E04F4800783E
:10307000012812D100204D490870544800780C21D5
:1030800090FBF1F201FB1200401C50490870084609
:10309000027806210520FDF74DFE454800780028FE
:1030A000E4D00020FEF760F94848027806210520A8
:1030B000FDF740FE00203E4908704FF47840FEF7CF
:1030C00053F94348027803210520FDF733FE16E04B
:1030D00036480078012812D10020344908703C4855
:1030E00000781F2190FBF1F201FB1200401C3849CF
:1030F00008700846027803210520FDF71BFE2C48C6
:1031000000780028E4D00020FEF72EF9304802783D
:1031100003210520FDF70EFE0020254908704FF41D
:103120007840FEF721F92B48027800210520FDF7B1
:1031300001FE16E01D480078012812D100201B492D
:10314000087024480078072190FBF1F201FB12007F
:10315000401C204908700846027800210520FDF730
:10316000E9FD134800780028E4D00020FEF7FCF8C1
:103170001848027800210520FDF7DCFD00200C49ED
:103180000870FDF77FFEC0888004040C2046FDF720
:1031900069FDFDF777FEC08800EB800084B2204611
:1031A0001AE00000060000200700002008000020B0
:1031B000090000201300002014000020100000204F
:1031C00011000020120000200F0000200E0000203F
:1031D0000D0000200C000020FDF744FD00F00CF86D
:1031E00000F0E0FC00200349087000E000BF00BFD1
:1031F000DBE50000060000200EB501210807FEF700
:10320000F5FA0120FEF7CAFA0120FEF7C3FB4FF4DE
:103210000070FEF7E9FB0120FEF7E0FB7F20019044
:10322000F9200290002000906846FEF7D9FD0EBDFF
:103230001FB500F04FF81448008800F00100D0B925
:103240000020ADF804004BF6FF70ADF8060000203A
:10325000ADF808004FF48060ADF80A000001ADF849
:103260000C000A48009069460748FDF7A5FB0121BC
:103270000548FDF747FB01210348FDF74FFBA02060
:10328000034908801FBD0000005C0040A0860100CB
:103290006800002070B504460D46164656B90B4826
:1032A000846040200949C860084605610848FDF768
:1032B0002BF90AE00548846000200449C8600846EC
:1032C000056103483038FDF71FF970BD7C00002010
:1032D000706002401CB50121C805FEF787FA012184
:1032E0000520FEF763FA01218803FEF79FFA01210A
:1032F000C805FEF78BFA00214FF40000FEF786FAAE
:103300004FF48070009002208DF804008DF80500C5
:1033100001208DF8060000208DF8070069463C4822
:10332000FDF74AFA4FF40070009069463948FDF7FE
:1033300043FA042208213648FDF786FA04220921BF
:103340003448FDF781FA0F20334908700020487097
:1033500088700120C8700846FEF7DEF90D202E495E
:1033600008700020487088700846FEF7D5F90121E2
:103370004805FEF71BFA29492948FCF7B3FF00214D
:103380002748FCF7C9FF2648FCF7D2FF4FF0C06082
:103390002449086024484860002088604020C860B4
:1033A0004FF6FF700861002048614FF4806088612B
:1033B0000020C861086248624FF4403088620420EF
:1033C000C862032008630020486388631448FDF73F
:1033D0009BF8164912483038FCF784FF002110484A
:1033E0003038FCF799FF0E483038FCF7A1FF0D4943
:1033F0000B483038FDF788F8012210210848FDF706
:1034000065F80122102106483038FDF75FF81CBD31
:103410000000024000080240340000203D0000206F
:10342000706002407C000020105C004000003D10F5
:1034300070B506460D461446844804604FF420409B
:103440008349086007E082490868411E804A11608C
:1034500008B900F00BF94FF400317E48FDF78EFA01
:103460000028F0D101217B48FDF770FA4FF480501D
:103470007749086007E076490868411E744A116080
:1034800008B900F0F3F874497248FDF720FA0028F3
:10349000F1D072480088C1B200226E48FDF704FBEB
:1034A0004FF480506A49086007E069490868411E86
:1034B000674A116008B900F0D9F869496548FDF715
:1034C00006FA0028F1D0290A6248FDF7F5FA4FF410
:1034D00080505F49086007E05D490868411E5C4A0A
:1034E000116008B900F0C2F85D49891E5948FDF71E
:1034F000EEF90028F0D0E9B25648FDF7DDFA4FF4B6
:1035000080505349086007E051490868411E504AFD
:10351000116008B900F0AAF852494E48FDF72EFA9A
:103520000028F1D001214B48FDF710FA4FF48050EC
:103530004749086007E046490868411E444A11604F
:1035400008B900F093F844494248FDF7C0F9002853
:10355000F1D042480088C1B201223E48FDF7A4FAEA
:10356000208802284EDA4FF480503949086007E07D
:1035700037490868411E364A116008B900F076F8EC
:103580003849891E3348FDF7F9F90028F0D00021A9
:103590003048FDF790F92F481830008801212D4858
:1035A000FDF7E0F94FF480502949086007E0284909
:1035B0000868411E264A116008B900F057F82949E9
:1035C0003C312448FDF7DAF90028F0D02148FDF716
:1035D00067FA30704FF480501D49086007E01C49BD
:1035E0000868411E1A4A116008B900F03FF81948EE
:1035F000008800F400700028F1D101211548FDF782
:103600005AF920E04FF480501149086007E0104952
:103610000868411E0E4A116008B900F027F80E49EB
:10362000491C0C48FDF753F90028F0D021880122ED
:103630003046FFF72FFE01210648FDF77BF90121F7
:103640000948FCF769FE002070BD000070000020F2
:103650006C000020005C00400100030068000020B6
:1036600082000700040000104060024000BFFEE737
:103670001CB50020019000904FF4204031490860B3
:1036800007E030490868411E2E4A116008B9FFF76B
:10369000EDFF4FF400312C48FDF770F90028F0D110
:1036A0004FE001212848FDF751F94FF4805025499A
:1036B000086007E023490868411E224A116008B9E2
:1036C000FFF7D4FF21492048FDF701F90028F1D088
:1036D0001F480088C1B200221B48FDF7E5F94FF4EE
:1036E00020401849086000BF174814300088019036
:1036F00014490868411E134A116008B9FFF7B6FF64
:10370000BDF8040040F2024108400028ECD0BDF8AA
:10371000040000F0020040B10B481830008801217D
:103720000948FDF71FF900201CBD0A490648FDF7AE
:10373000E3F80098411C0091B0F5967F01D1FFF7A6
:1037400095FFAEE76C000020005C00400100030024
:1037500068000020000400102DE9F04780460E4666
:1037600014464FF0000900270025AA463046F117FD
:1037700006EB91718910A6EB81011FFA81FACAF15B
:10378000040085B22046E11704EB9171C1F38F0963
:10379000E11704EB91718910A4EB81018FB2BAF1AA
:1037A000000F64D1B9F1000F1BD198490F700A4680
:1037B0003146404600F02EF94FF42040944908600D
:1037C00008E093490868411E914A116008B9FFF763
:1037D0004DFF00BF8D4800780028F2DCFFF748FF5E
:1037E00012E11FE00420894908700A46314640462C
:1037F00000F010F94FF420408549086008E0844942
:103800000868411E824A116008B9FFF72FFF00BF08
:103810007E4800780028F2DCFFF72AFF301D86B2D0
:1038200008F10408B9F10000A9F101011FFA81F9BA
:10383000D8D1002FD4D075490F700A463146404682
:1038400000F0E8F84FF420407149086008E0704942
:103850000868411E6E4A116008B9FFF707FF00BFF4
:103860006A4800780028F2DCFFF702FFCCE0B9F1EB
:10387000000F57D1AC4239DD64490D700A4631461C
:10388000404600F0C7F84FF420406149086008E066
:103890005F490868411E5E4A116008B9FFF7E6FEFD
:1038A00000BF5A4800780028F2DCFFF7E1FE601BF9
:1038B00056490870721991B208EB0500534A00F09E
:1038C000A9F84FF420405249086008E050490868C0
:1038D000411E4F4A116008B9FFF7C8FE00BF4B48B0
:1038E00000780028F2DCFFF7C3FE8DE047490F7037
:1038F0000A463146404600F08DF84FF420404449D6
:10390000086008E042490868411E414A116008B950
:10391000FFF7ACFE00BF3D4800780028F2DCFFF75F
:10392000A7FE71E0601B84B22046E11704EB9171A1
:103930004FEAA109E11704EB91718910A4EB810111
:103940008FB2EDB131490D700A463146404600F064
:1039500061F84FF420402E49086008E02C490868BF
:10396000411E2B4A116008B9FFF780FE00BF2748AF
:1039700000780028F2DCFFF77BFE701986B2A844BD
:103980001FE00420214908700A463146404600F0F5
:1039900041F84FF420401E49086008E01C490868BF
:1039A000411E1B4A116008B9FFF760FE00BF1748AF
:1039B00000780028F2DCFFF75BFE301D86B208F1CC
:1039C0000408B9F10000A9F101011FFA81F9D8D169
:1039D000D7B10E490F700A463146404600F01AF83A
:1039E0004FF420400A49086008E009490868411E70
:1039F000074A116008B9FFF739FE00BF0348007895
:103A00000028F2DCFFF734FEBDE8F08778000020E4
:103A10006C00002070B506460C461546424805600D
:103A20004FF420404149086007E040490868411EC2
:103A30003E4A116008B9FFF719FE4FF400313C48C7
:103A4000FCF79CFF0028F0D101213948FCF77EFFEC
:103A50004FF480503549086007E034490868411E3A
:103A6000324A116008B9FFF701FE32493048FCF7CD
:103A70002EFF0028F1D04FF480502C4908602E48CA
:103A80000088C1B200222A48FDF70EF84FF480509A
:103A90002649086007E025490868411E234A11604D
:103AA00008B9FFF7E3FD25492148FCF710FF00287E
:103AB000F1D0210A1E48FCF7FFFF4FF480501B494C
:103AC000086007E019490868411E184A116008B9E2
:103AD000FFF7CCFD1949891E1548FCF7F8FE0028B0
:103AE000F0D0E1B21248FCF7E7FF4FF480500F49E5
:103AF000086007E00D490868411E0C4A116008B9CA
:103B0000FFF7B4FD0D49891E0948FCF7E0FE0028C7
:103B1000F0D0297800223046FFF7BCFB012108488D
:103B2000FCF7FAFB002070BD740000206C00002040
:103B3000005C0040010003006800002082000700D4
:103B4000706002401FB569460020FEF7EFF89DF84F
:103B5000020003909DF8010002909DF80000019082
:103B60000F480488601C0E4A10802146012201A8DB
:103B7000FFF7F2FD0A480488601C094A10802146BC
:103B8000012202A8FFF7E8FD05480488601C044AEA
:103B900010802146012203A8FFF7DEFD1FBD0000B3
:103BA000000000201CB5124800788DF80400114870
:103BB00000788DF80500104800788DF8060001A9FE
:103BC0000020FEF719FA0D4800788DF800000C4827
:103BD00000788DF801000B4800788DF802000A4843
:103BE00000788DF8030069460020FEF7A1F91CBD9E
:103BF0001200002011000020100000200C00002006
:103C00000E0000200D0000200F00002008B56946BE
:103C10000020FEF745F817A200210420FDF79EF8CA
:103C20009DF80000164908709DF8020015490870BB
:103C30009DF80100144908709DF8030013490870AD
:103C40000F48027800210520FDF774F80D4802782E
:103C500003210520FDF76EF80B48027806210520A8
:103C6000FDF768F80948027809210520FDF762F898
:103C700008BD000057443A44443A4D4D3A59590062
:103C80000C0000200D0000200E0000200F0000207E
:103C900038B569460020FEF749F89DF8020014493E
:103CA00008709DF80100134908709DF80000124942
:103CB000087012A200210846FDF750F8FDF7E2F85F
:103CC000C4882046FCF7CEFF0B4802780021012073
:103CD000FDF730F80748027803210120FDF72AF8A4
:103CE0000348027806210120FDF724F838BD0000C2
:103CF00010000020110000201200002048483A4D1A
:103D00004D3A53530000000010B586B04948008872
:103D1000801F4849088008460488601C0A461080B5
:103D20002146454A03A8FFF783FB42480488601CEC
:103D3000404A10802146404A04A8FFF779FB3D48DD
:103D40000488601C3B4A108021463B4A05A8FFF7C7
:103D50006FFB38480488601C364A10802146364A7A
:103D60006846FFF765FB33480488601C314A1080C1
:103D70002146314A01A8FFF75BFB2E480488601CEE
:103D80002C4A108021462C4A02A8FFF751FB2BA297
:103D900000210820FCF7E2FFFDF774F8C08800EB73
:103DA000C00084B22046FCF75DFF27A20921084627
:103DB000FCF7D4FF26A200210920FCF7CFFF9DF8D5
:103DC0000C2000210920FCF7B5FF9DF810200321ED
:103DD0000920FCF7AFFF9DF8142006210920FCF70D
:103DE000A9FFFDF74FF8C08800EB80004004040CE9
:103DF0002046FCF737FF18A209210A20FCF7AEFF86
:103E000013A200210A20FCF7A9FF9DF80020002141
:103E10000A20FCF78FFF9DF8042003210A20FCF7FD
:103E200089FF9DF8082006210A20FCF783FF06B0D1
:103E300010BD0000000000200400002054696D65E2
:103E40007374616D70733A004C415354000000006C
:103E500020203A20203A0000524543454E540000AD
:103E60000020004040000000400000000100000071
:103E7000010000000100000006000000000000003A
:103E80000000000000000000000000000000000032
:103E90000000000000000000000000000000000022
:103EA0000000000000000000000000008001800110
:103EB00080018001800180018001800180018001FA
:103EC000800180018001000000008001800100006D
:103ED0000000000000000000000000000000CC0016
:103EE000CC00CC00CC00CC00CC00000000000000D6
:103EF00000000000000000000000000000000000C2
:103F000000000000000000000000000000000000B1
:103F1000000000000000600C600C600C30063006F1
:103F2000FE1FFE1F300638071803FE1FFE1F180372
:103F300018038C018C018C01000000008000E0035C
:103F4000F80F9C0E8C1C8C188C009800F801E00770
:103F5000800E801C8C188C189C18B80CF00FE00395
:103F60008000800000000000000000000000000051
:103F70000E181B0C110C11061106110311039B01E5
:103F80008E01C038C06C60446044304430441844F2
:103F9000186C0C380000000000000000E001F00385
:103FA0003807180618063003F001F000F8009C31BD
:103FB0000E33061E061C061C063FFC73F021000093
:103FC00000000000000000000000000000000C00E5
:103FD0000C000C000C000C000C00000000000000A5
:103FE00000000000000000000000000000000000D1
:103FF00000000000000000000000000000020003BC
:104000008001C000C000600060003000300030005F
:104010003000300030003000300060006000C00030
:10402000C0008001000300020000000020006000CA
:10403000C0008001800100030003000600060006A6
:1040400000060006000600060006000300038001CB
:104050008001C0006000200000000000000000009F
:10406000000000000000C000C000D806F807E00112
:1040700030033807000000000000000000000000CE
:104080000000000000000000000000000000000030
:10409000000000000000800180018001800180019B
:1040A000FC3FFC3F80018001800180018001000015
:1040B0000000000000000000000000000000000000
:1040C00000000000000000000000000000000000F0
:1040D00000000000000000000000000080018001DE
:1040E000000100018000000000000000000000004E
:1040F00000000000000000000000000000000000C0
:104100000000E007E00700000000000000000000E1
:10411000000000000000000000000000000000009F
:10412000000000000000000000000000000000008F
:10413000000000000000000000000000C000C000FF
:10414000000000000000000000000000000C000C57
:104150000006000600060003000300038003800140
:1041600080018001C000C000C0006000600000004D
:10417000000000000000000000000000E003F00765
:10418000380E180C0C180C180C180C180C180C18ED
:104190000C180C180C18180C380EF007E00300006F
:1041A000000000000000000000000000000180018D
:1041B000C001F00198018801800180018001800127
:1041C0008001800180018001800180018001000068
:1041D000000000000000000000000000E003F80FF5
:1041E000180C0C180C1800180018000C000600031E
:1041F0008001C000600030001800FC1FFC1F0000A0
:10420000000000000000000000000000E001F807CE
:10421000180E0C0C0C0C000C0006C003C007000CA0
:10422000001800180C180C18180CF807E003000010
:10423000000000000000000000000000000C000E64
:10424000000F000F800DC00C600C600C300C180CBF
:104250000C0CFC3FFC3F000C000C000C000C0000A0
:10426000000000000000000000000000F80FF80F40
:10427000180018000C00EC03FC071C0E001C0018B2
:10428000001800180C181C0C180EF807E0030000AA
:10429000000000000000000000000000C007F00F58
:1042A000381C181818000C00CC03EC0F3C0E1C1C1A
:1042B0000C180C180C18181C380EF007E00300003E
:1042C000000000000000000000000000FC1FFC1FB8
:1042D000000C00060006000380038001C001C0003E
:1042E000E00060006000700030003000300000002E
:1042F000000000000000000000000000E003F007E4
:10430000380E180C180C180C3806F007F007180CAB
:104310000C180C180C180C18380CF80FE0030000DF
:10432000000000000000000000000000E003F007B3
:10433000380E1C0C0C180C180C181C1C381EF81B02
:10434000E0190018000C000C1C0EF807F00100002A
:10435000000000000000000000000000000000005D
:10436000000000000000800180010000000000004B
:10437000000000000000000000008001800100003B
:10438000000000000000000000000000000000002D
:10439000000000000000800180010000000000001B
:1043A000000000000000000000008001800100010A
:1043B000000180000000000000000000000000007C
:1043C000000000000000000000000010001C800F32
:1043D000E003F8001800F800E003800F001C001054
:1043E00000000000000000000000000000000000CD
:1043F00000000000000000000000F81F00000000A6
:104400000000F81F00000000000000000000000095
:10441000000000000000000000000000000000009C
:104420000000000000000000000008003800F0015B
:10443000C007001F0018001FC007F0013800080067
:10444000000000000000000000000000E003F80F82
:10445000180C0C180C180018000C00060003800142
:10446000C000C000C00000000000C000C00000008C
:104470000000000000000000000000000000E00755
:1044800018180420C229224A114409440944094445
:1044900009221113E20C024004201818E007000062
:1044A0000000000000000000000000008003800306
:1044B000C006C006C006600C600C301830183018FA
:1044C000F83FF83F1C700C600C6006C006C000008E
:1044D000000000000000000000000000FC03FC0FD2
:1044E0000C0C0C180C180C180C0CFC07FC0F0C18FE
:1044F0000C300C300C300C300C18FC1FFC0700008A
:10450000000000000000000000000000C007F01FD5
:1045100038381C300C7006600600060006000600E5
:104520000600060006600C701C30F01FE00700005B
:10453000000000000000000000000000FE03FE0F6D
:10454000060E06180618063006300630063006300D
:104550000630063006180618060EFE0FFE03000091
:10456000000000000000000000000000FC3FFC3FD5
:104570000C000C000C000C000C00FC1FFC1F0C00BD
:104580000C000C000C000C000C00FC3FFC3F000079
:10459000000000000000000000000000F83FF83FAD
:1045A00018001800180018001800F81FF81F18004D
:1045B0001800180018001800180018001800000053
:1045C000000000000000000000000000E00FF83FC5
:1045D0003C780E6006E007C00300030003FE03FE04
:1045E00003C007C006C00EC03CF0F83FE00F00005B
:1045F0000000000000000000000000000C300C3043
:104600000C300C300C300C300C30FC3FFC3F0C30CC
:104610000C300C300C300C300C300C300C300000F6
:104620000000000000000000000000008001800188
:104630008001800180018001800180018001800172
:1046400080018001800180018001800180010000E3
:10465000000000000000000000000000000600064E
:10466000000600060006000600060006000600061A
:1046700000060006180618063807F003E0010000DF
:1046800000000000000000000000000006300618D6
:10469000060C060606038601C60066007600DE00EC
:1046A0008E0106030606060C06180630066000009A
:1046B00000000000000000000000000018001800CA
:1046C000180018001800180018001800180018002A
:1046D00018001800180018001800F81FF81F000034
:1046E0000000000000000000000000000EE01EF0CE
:1046F0001EF01EF036D836D836D836D866CC66CC02
:1047000066CCC6C6C6C6C6C6C6C686C386C30000B5
:104710000000000000000000000000000C301C3011
:104720003C303C306C306C30CC30CC308C310C3385
:104730000C330C360C360C3C0C3C0C380C300000A6
:10474000000000000000000000000000E007F81F6B
:104750001C380E70066003C003C003C003C003C052
:1047600003C003C006600E701C38F81FE00700008D
:10477000000000000000000000000000FC0FFC1F13
:104780000C380C300C300C300C300C18FC1FFC07B3
:104790000C000C000C000C000C000C000C000000C5
:1047A000000000000000000000000000E007F81F0B
:1047B0001C380E70066003E003C003C003C003C0D2
:1047C00003C007E006630E3F1C3CF83FE0F700C063
:1047D000000000000000000000000000FE0FFE1FAF
:1047E00006380630063006300638FE1FFE07060380
:1047F0000606060C0618061806300630066000008D
:10480000000000000000000000000000E003F80FBE
:104810001C0C0C180C180C001C00F803E00F001EF8
:104820000038063006300E301C1CF80FE007000080
:10483000000000000000000000000000FE7FFE7F7E
:104840008001800180018001800180018001800160
:1048500080018001800180018001800180010000D1
:104860000000000000000000000000000C300C30D0
:104870000C300C300C300C300C300C300C300C3058
:104880000C300C300C300C301818F81FE00700000A
:10489000000000000000000000000000036006307F
:1048A000063006300C180C180C18180C180C380EA2
:1048B00030063006700760036003C001C0010000CD
:1048C0000000000000000000000000000360C36161
:1048D000C361C361663366336633663366336633FA
:1048E0006C1B6C1B6C1B2C1A3C1E380E380E000007
:1048F0000000000000000000000000000FE00C704D
:1049000018303018700C600EC00780038003C0039D
:10491000E006700C301C18180C300E6007E0000028
:1049200000000000000000000000000003C006605E
:104930000C301C383818300C6006E007C0038001CA
:1049400080018001800180018001800180010000E0
:10495000000000000000000000000000FC7FFC7F61
:10496000006000300018000C000600038001C00049
:104970006000300018000C000600FE7FFE7F000083
:10498000000000000000000000000000E003E00361
:104990006000600060006000600060006000600017
:1049A0006000600060006000600060006000600007
:1049B00060006000E003E003000000003000300011
:1049C000600060006000C000C000C000C001800145
:1049D00080018001000300030003000600060000C0
:1049E000000000000000000000000000E003E00301
:1049F000000300030003000300030003000300039F
:104A0000000300030003000300030003000300038E
:104A100000030003E003E003000000000000C00109
:104A2000C00160036003600330063006180C180CE8
:104A30000000000000000000000000000000000076
:104A40000000000000000000000000000000000066
:104A50000000000000000000000000000000000056
:104A6000000000000000000000000000FFFFFFFF4A
:104A70000000000000000000000000000C000C001E
:104A80000C000C000C000C000000000000000000F6
:104A90000000000000000000000000000000000016
:104AA0000000000000000000000000000000000006
:104AB000000000000000F003F8071C0C0C0C000FB5
:104AC000F00FF80C0C0C0C0C1C0FF80FF018000079
:104AD00000000000000000000000000018001800A6
:104AE000180018001800D803F80F380C18181818F8
:104AF0001818181818181818380CF80FD8030000D0
:104B000000000000000000000000000000000000A5
:104B1000000000000000C003F007300E180C180061
:104B2000180018001800180C300EF007C003000021
:104B30000000000000000000000000000018001845
:104B4000001800180018C01BF01F301C1818181887
:104B50001818181818181818301CF01FC01B00005F
:104B60000000000000000000000000000000000045
:104B7000000000000000C003F00F300C1818F81FF0
:104B8000F81F180018003818301CF00FC00700007C
:104B9000000000000000000000000000800FC00FB7
:104BA000C000C000C000F007F007C000C000C00097
:104BB000C000C000C000C000C000C000C0000000B5
:104BC00000000000000000000000000000000000E5
:104BD000000000000000E00DF80F180E0C0C0C0C8B
:104BE0000C0C0C0C0C0C0C0C180EF80FE00D000C3F
:104BF0000C0C1C06F807F00100000000180018005B
:104C0000180018001800D807F80F381C18181818C2
:104C10001818181818181818181818181818000044
:104C2000000000000000000000000000C000C00004
:104C3000000000000000C000C000C000C000C000B4
:104C4000C000C000C000C000C000C000C000000024
:104C5000000000000000000000000000C000C000D4
:104C6000000000000000C000C000C000C000C00084
:104C7000C000C000C000C000C000C000C000C00034
:104C8000C000C000F8007800000000000C000C001C
:104C90000C000C000C000C0C0C060C038C01CC005E
:104CA0006C00FC009C018C030C030C060C0C000037
:104CB000000000000000000000000000C000C00074
:104CC000C000C000C000C000C000C000C000C000E4
:104CD000C000C000C000C000C000C000C000000094
:104CE00000000000000000000000000000000000C4
:104CF0000000000000007C3CFF7EC7E383C183C14D
:104D000083C183C183C183C183C183C183C10000C7
:104D10000000000000000000000000000000000093
:104D20000000000000009807F80F381C1818181829
:104D30001818181818181818181818181818000023
:104D40000000000000000000000000000000000063
:104D5000000000000000C003F00F300C18181818F5
:104D60001818181818181818300CF00FC003000085
:104D70000000000000000000000000000000000033
:104D8000000000000000D803F80F380C181818189D
:104D90001818181818181818380CF80FD803180015
:104DA00018001800180018000000000000000000A3
:104DB000000000000000C01BF01F301C181818185D
:104DC0001818181818181818301CF01FC01B0018D5
:104DD0000018001800180018000000000000000073
:104DE000000000000000B007F00370003000300049
:104DF0003000300030003000300030003000000063
:104E000000000000000000000000000000000000A2
:104E1000000000000000E003F003380E180C38001A
:104E2000F003C007000C180C380EF007E003000078
:104E300000000000000000000000000000008000F2
:104E4000C000C000C000F007F007C000C000C000F4
:104E5000C000C000C000C000C000C0078007000044
:104E60000000000000000000000000000000000042
:104E70000000000000001818181818181818181842
:104E80001818181818181818381CF01FE019000006
:104E90000000000000000000000000000000000012
:104EA0000000000000000C18180C180C180C30063C
:104EB00030063006600360036003C001C0010000DB
:104EC00000000000000000000000000000000000E2
:104ED000000000000000C141C141C361636363631E
:104EE00063633636363636361C1C1C1C1C1C000010
:104EF00000000000000000000000000000000000B2
:104F00000000000000001C38381C300C60066003F4
:104F10006003600360036006300C381C1C3800001E
:104F20000000000000000000000000000000000081
:104F30000000000000001830301830187018600CA5
:104F4000600CE00CC006C006800380038003800173
:104F50008001C001F00070000000000000000000AF
:104F6000000000000000FC1FFC1F000C00060003F6
:104F70008001C000600030001800FC1FFC1F000012
:104F8000000000000000000000000000000380019D
:104F9000C000C000C000C000C000C00060006000D1
:104FA000300060004000C000C000C000C000C00071
:104FB000C0008001000300000000000080018001AB
:104FC00080018001800180018001800180018001D9
:104FD00080018001800180018001800180018001C9
:104FE0008001800180018001000000006000C0009D
:104FF000C001800180018001800180010003000365
:105000000006000300018001800180018001800111
:105010008001C000600000000000000000000000EF
:1050200000000000000000000000F010F81F080F52
:105030000000000000000000000000000000000070
:105040000000000000000000000000000000000060
:105050000000000000000000000000000000000050
:105060000000000000200020002000200020002080
:105070000020000000200000000000000050005050
:1050800000500000000000000000000000000000D0
:1050900000000000000900090012007F0012007FDC
:1050A000001200240024000000000010003800540A
:1050B0000050005000380014005400540038001014
:1050C00000000000803000490049004AC03220053D
:1050D00020092009C010000000000000000C001290
:1050E000001200140018002500230023801D00007A
:1050F00000000000004000400040000000000000F0
:105100000000000000000000000000000008001087
:1051100000100020002000200020002000200010AF
:1051200000100000004000200020001000100010BF
:10513000001000100010002000200000002000706F
:1051400000200050000000000000000000000000EF
:10515000000000000000000000080008007F0008B8
:105160000008000000000000000000000000000037
:1051700000000000000000000000000000200020EF
:10518000004000000000000000000000000000706F
:10519000000000000000000000000000000000000F
:1051A00000000000000000000000000000200000DF
:1051B000000000000010001000100020002000205F
:1051C0000020004000400000000000000010002807
:1051D0000044004400440044004400280010000043
:1051E00000000000001000300050001000100010FF
:1051F0000010001000100000000000000030004807
:10520000004400040008001000200040007C000062
:1052100000000000003000480004000800100008F2
:1052200000440048003000000000000000080018A2
:105230000018002800280048007C00080008000032
:1052400000000000003C0020004000700048000406
:105250000044004800300000000000000018002456
:105260000040005000680044004400280010000086
:1052700000000000007C0004000800100010001076
:105280000020002000200000000000000010002886
:1052900000440028001000280044002800100000EE
:1052A000000000000010002800440044002C0014FE
:1052B0000004004800300000000000000000000072
:1052C000002000000000000000000000002000009E
:1052D00000000000000000000020000000000000AE
:1052E000000000000020002000400000000000043A
:1052F00000080030004000300008000400000000FA
:105300000000000000000000007C00000000007CA5
:10531000000000000000000000000000000000404D
:1053200000200018000400180020004000000000C9
:105330000000000000380064004400040008001071
:10534000001000000010000000000000800F40105E
:10535000A02EA0512051205120512053C04D20207B
:105360004010000000080014001400140022003E49
:10537000002200410041000000000000003C00222B
:1053800000220022003C002200220022003C0000FB
:1053900000000000000E001100210020002000206D
:1053A00000210011000E000000000000003C00225F
:1053B000002100210021002100210022003C0000EA
:1053C00000000000003E002000200020003E0020E1
:1053D00000200020003E000000000000003E0020F1
:1053E00000200020003C00200020002000200000C1
:1053F00000000000000E0011002100200027002105
:1054000000210011000E000000000000002100211A
:1054100000210021003F0021002100210021000087
:1054200000000000002000200020002000200020BC
:1054300000200020002000000000000000080008FC
:10544000000800080008000800480048003000007C
:105450000000000000220024002800280038002856
:105460000024002400220000000000000020002092
:10547000002000200020002000200020003E00002E
:10548000000000008020803180318031802A802A15
:10549000802A802A802400000000000000210031C2
:1054A00000310029002900250023002300210000ED
:1054B00000000000000C001200210021002100214A
:1054C00000210012000C000000000000003C00223F
:1054D00000220022003C00200020002000200000CC
:1054E00000000000000C001200210021002100211A
:1054F00000210016000D000100000000003E002108
:1055000000210021003E0024002200218020000014
:1055100000000000001C002200220020001C0002ED
:1055200000220022001C000000000000003E0008D5
:105530000008000800080008000800080008000033
:105540000000000000210021002100210021002195
:1055500000210012000C000000000000004100418A
:105560000022002200220014001400140008000091
:10557000000000004044404A402A802A802A802AB5
:10558000802A802A00110000000000000041002253
:105590000014001400080014001400220041000050
:1055A0000000000000410022002200140008000852
:1055B000000800080008000000000000007E000253
:1055C000000400080010001000200040007E0000D1
:1055D00000000000003000200020002000200020FB
:1055E000002000200020002000200000004000409B
:1055F00000200020002000200020001000100000EB
:10560000000000000060002000200020002000209A
:1056100000200020002000200020000000100028B2
:1056200000280028004400000000000000000000E6
:10563000000000000000000000000000000000006A
:105640000000000000000000007E0040002000007C
:10565000000000000000000000000000000000004A
:105660000000000000000000003800440004003C7E
:1056700000440044003C00000000000000400040E6
:1056800000580064004400440044006400580000D6
:105690000000000000000000003000480040004012
:1056A000004000480030000000000000000400043A
:1056B0000034004C004400440044004C003400001E
:1056C0000000000000000000003800440044007C9E
:1056D000004000440038000000000000006000406E
:1056E00000E000400040004000400040004000005A
:1056F00000000000000000000034004C00440044A2
:105700000044004C0034000400440000004000400D
:105710000058006400440044004400440044000079
:105720000000000000400000004000400040004039
:105730000040004000400000000000000040000069
:105740000040004000400040004000400040004059
:105750000040000000400040004800500060005041
:1057600000500048004800000000000000400040D9
:105770000040004000400040004000400040000069
:1057800000000000000000000052006D00490049C8
:10579000004900490049000000000000000000002E
:1057A00000580064004400440044004400440000E9
:1057B00000000000000000000038004400440044E5
:1057C0000044004400380000000000000000000019
:1057D0000058006400440044004400640058004045
:1057E00000400000000000000034004C0044004471
:1057F0000044004C003400040004000000000000DD
:1058000000500060004000400040004000400000A8
:1058100000000000000000000030004800400030A0
:105820000008004800300000000000000040004078
:1058300000E00040004000400040004000600000E8
:105840000000000000000000004400440044004448
:105850000044004C00340000000000000000000084
:105860000044004400280028002800280010000000
:1058700000000000000000000049004900550055EC
:10588000005500550022000000000000000000004C
:1058900000440028002800100028002800440000D0
:1058A0000000000000000000004400440028002820
:1058B0000028001000100010001000000000000080
:1058C0000078000800100020002000400078000050
:1058D00000000000001000200020002000200040F8
:1058E00000200020002000200020000000200020D8
:1058F00000200020002000200020002000200020A8
:1059000000200000004000200020002000200010A7
:1059100000200020002000200020000000000000E7
:1059200000000074005800000000000000000000AB
:1059300000000000000000700050005000500050B7
:105940000050005000700000000000000000000047
:105950000000000000000000000000000000000047
:1059600000000000000000001000100010001000F7
:1059700010001000000010000000000000000000F7
:10598000280028002800000000000000000000009F
:105990000000000000000000140014003E0014008D
:1059A00028007C00280028000000000000001000F3
:1059B000380054005000380014001400540038001F
:1059C00010000000000000004400A800A8005000E3
:1059D00014001A002A00240000000000000000004B
:1059E0002000500050002000E8009800980060005F
:1059F0000000000000000000800080008000000027
:105A00000000000000000000000000000000000096
:105A100040008000800080008000800080008000C6
:105A200080000000000000008000400040004000B6
:105A30004000400040004000400000000000000026
:105A40004000E0004000A000000000000000000056
:105A50000000000000000000000000002000200006
:105A6000F8002000200000000000000000000000FE
:105A700000000000000000000000000000004000E6
:105A800040000000000000000000000000000000D6
:105A90000000C00000000000000000000000000046
:105AA00000000000000000000000000000004000B6
:105AB0000000000000000000200020002000400046
:105AC0004000800080008000000000000000000016
:105AD00060009000900090009000900090006000A6
