:020000040800F2
:1000000088040020C1010008691B0008930E000845
:10001000651B0008670A00082D2800080000000082
:10002000000000000000000000000000892200081D
:10003000410B000800000000011C0008F12300082B
:10004000DB010008DB010008DB010008DB01000820
:10005000DB010008DB010008450B0008590B000814
:100060006D0B0008DB010008DB010008DB01000864
:10007000DB010008DB010008DB010008DB010008F0
:10008000DB010008DB0100084D090008DB01000866
:10009000DB010008DB010008DB010008DB010008D0
:1000A000DB010008DB010008DB010008DB010008C0
:1000B000AD240008DB010008DB010008DB010008BB
:1000C000DB010008DB010008DB010008DB010008A0
:1000D000DB010008DB010008DB010008DB01000890
:1000E000DB010008DB010008DB010008DB01000880
:1000F000DB010008DB010008DB010008DB01000870
:10010000DB010008DB010008DB010008DB0100085F
:10011000DB010008DB010008DB010008DB0100084F
:10012000DB010008DB010008DB010008DB0100083F
:10013000DB010008DB010008DB010008DB0100082F
:10014000DB010008DB010008DB010008DB0100081F
:10015000DB010008DB010008DB010008DB0100080F
:10016000DB010008DB010008DB010008DB010008FF
:10017000DB010008DB010008DB010008DB010008EF
:10018000DB010008DB010008DB010008DB010008DF
:10019000DB010008DB010008DB010008DB010008CF
:1001A000DB010008DB010008DB010008DFF80CD0F0
:1001B00000F038FB0048004799320008880400200E
:1001C0000648804706480047FEE7FEE7FEE7FEE7F1
:1001D000FEE7FEE7FEE7FEE7FEE7FEE7F5230008A1
:1001E000AD0100082DE9FE4F804681EA0300C00FF3
:1001F0000C46009021F0004123F00045B8EB0200CE
:10020000A94105D24046214690461C460B4602466F
:1002100023F00040104347D0270DC7F30A00C3F373
:100220000A510290401A019040286BDAC3F3130080
:1002300040F4801B0098924620B10023D2EB030AC1
:1002400063EB0B0B01985946C0F14002504600F099
:100250009CF906460D4650465946019A00F0B4F9FD
:1002600010EB08006141002487EA115284EAE77329
:100270001A4340D0009A62B3019A012A4FEA07520A
:1002800015DC001B61EB02014FF0004202EA07524D
:10029000CDE90042001C41F5801132462B4600F0AA
:1002A000EBF903B0BDE8F08F40462146F9E7001BAB
:1002B00061EB0201001C41F5801300185B4120181E
:1002C000A2F5001747EB030140EAD570B6196D415E
:1002D00011E06D084FEA360645EAC0754FEA07524D
:1002E000001B61EB0201001C41F5801149084FEA37
:1002F00030000019514132462B4603B0BDE8F04FA3
:1003000000F0ABB90098012240000023D0EB0202BC
:1003100063EBE073009821464FEAE074B8EB00000D
:1003200061EB0401E9E783F000435BE781F0004102
:1003300058E72DE9FE4F81EA030404F0004421F060
:10034000004100944FF0000B23F0004350EA0104F9
:100350005ED052EA03045BD0C3F30A54C1F30A55DA
:100360002C44A4F2F3340194A0FB0254C1F3130112
:1003700041F48011C3F3130343F4801301FB0244DF
:1003800000FB034E840A970A44EA815447EA8357E4
:10039000A4FB076802958D0A05FB07854FEA932C9D
:1003A00004FB0C542705029D4FEA065847EA16370E
:1003B000B5EB08056EEB070C870E920E47EA811726
:1003C00042EA8312A7FB0201B6EB0B0164EB0004C7
:1003D0002B0D43EA0C335E1844EB1C50DA465146B1
:1003E000E7FB0201C5F313044FEA0B3343EA14534E
:1003F0004FEA0432019C43EA0603A4F10C04029480
:10040000009CCDE900B400F037F903B0BDE8F08FEF
:1004100000200146F9E70EB540F233410291002178
:10042000CDE900110A460B4600F026F903B000BDE5
:1004300070B5C1F30A5201F000450024C1F3130165
:1004400040F2FF3341F480119A4201DA002070BD7E
:1004500040F233439A42A2F2334203DC524200F0AC
:10046000A3F800E090402C43F1D0404270BD00F072
:10047000004230F000400AD0C10D01F56071C0F3B8
:10048000160042EA0151C20840071143704700209C
:100490000146704730B5041E71F1000404DB4FF0D3
:1004A0000044404264EB0101141E73F1000405DBBB
:1004B0001C464FF00043524263EB0403994208BFCD
:1004C000904230BD01F0004330B421F0004150EAC9
:1004D000010206D00A0DA2F56072C1F31301002AD1
:1004E00002DC30BC00207047440F44EAC104C10064
:1004F000E01830BC00EBC25000F078B830B50B46C5
:10050000014600202022012409E021FA02F59D4243
:1005100005D303FA02F5491B04FA02F52844151E17
:10052000A2F10102F1DC30BD2DE9F05F05460020AB
:1005300092469B4688460646814640241BE0284654
:1005400041464746224600F02FF853465A46C01A05
:10055000914110D311461846224600F016F82D1A84
:1005600067EB01084F4622460120002100F00DF8FC
:1005700017EB00094E41201EA4F10104DFDC4846C0
:1005800031462A464346BDE8F09F202A04DB203A44
:1005900000FA02F1002070479140C2F1200320FAD6
:1005A00003F3194390407047202A04DB203A21FAD4
:1005B00002F00021704721FA02F3D040C2F120027C
:1005C0009140084319467047202A06DBCB17203A92
:1005D00041FA02F043EAE07306E041FA02F3D04048
:1005E000C2F1200291400843194670470029A8BF74
:1005F0007047401C490008BF20F00100704710B44C
:10060000B0FA80FC00FA0CF050EA010404BF10BC00
:10061000704749B1CCF1200421FA04F411FA0CF12D
:1006200018BF012121430843A3EB0C01CB1D4FEA66
:1006300000614FEA102042BF002010BC704700EB61
:10064000C35010440029A4BF10BC7047401C49008F
:1006500008BF20F0010010BC704710B5141E73F1E4
:10066000000408DA401C41F1000192185B411A4372
:1006700001D120F0010010BD2DE9F04D92469B46BE
:1006800011B1B1FA81F202E0B0FA80F22032904664
:10069000FFF77BFF04460F4640EA0A0041EA0B01E0
:1006A00053465A46084313D0114653EA010019D065
:1006B000C8F140025046FFF777FF05460E46504608
:1006C00059464246FFF761FF084305D0012004E088
:1006D00020463946BDE8F08D0020054346EAE07625
:1006E0002C4337430A986305E40AA0EB0800002274
:1006F000FD0A44EA47540A3002D500200146E9E7E2
:10070000010510196941DDE9084500196941BDE895
:10071000F04DA2E72DE9F04D81EA030404F0004B0F
:1007200021F0004514464FF0000A23F0004150EA42
:10073000050220D054EA01021DD0C5F30A57024633
:10074000C5F31303C1F31300C1F30A5640F4801537
:1007500043F48013A7EB0608101BD64608F2FD38B9
:1007600073EB050002D308F1010801E092185B4128
:10077000B8F1000F03DA00200146BDE8F08D00203B
:100780004FF48011064684460EE0171B73EB0507F5
:1007900005D3121B63EB050306434CEA010C490821
:1007A0004FEA300092185B4150EA0107EDD152EA5E
:1007B000030012D082EA040083EA0501084305D051
:1007C000101BAB4106D20122002306E000224FF0AD
:1007D000004302E06FF0010253101AEB06004CEBED
:1007E000085110EB0A0041EB0B01BDE8F04DFFF79B
:1007F00034BFC1F30A52C1F3130140F2FF3341F495
:1008000080119A4202DA00200146704740F23343D9
:100810009A42A2F2334202DC5242FFF7C5BEFFF712
:10082000B4BE0000064C074D06E0E06840F001034E
:1008300094E8070098471034AC42F6D3FFF7BAFCAF
:10084000B05F0008D05F000821B1826842F0010269
:10085000826003E0826822F001028260704700003B
:100860000021084A1168084A1140D0E900231A43C0
:1008700083681A43C3681A431143044AC2F8041335
:100880007047000004230140E030FCFF00200140DD
:1008900000B58DB00121880201F0F4F90121042096
:1008A00001F0B0F90820019003208DF80800002025
:1008B0008DF80B0001A9184800F06EFA0020039093
:1008C00004900590069003A8FFF7CAFF0020079048
:1008D0008DF8200001208DF82100002009900A9059
:1008E0000B9001208DF8300007A90C4800F030F87B
:1008F000072301220D21094800F054F8012107487F
:1009000000F019F80121054800F00AF80121034818
:10091000FFF79AFF0DB000BD000802400022014021
:1009200021B1826842F48072826003E0826822F41E
:1009300080728260704721B1826842F400728260E6
:1009400003E0826822F40072826070477047000002
:1009500030B50246002000235068104C20400D792D
:100960000C6844EA05242043506090680C4C2040F9
:10097000D1E903542C438D682C434D7944EA450456
:1009800020439060D06A20F470000C7D641EE4B2B5
:10099000234340EA0350D06230BD0000FFFEFFFC5D
:1009A000FDF7FFC0F0B504460D4600200021092DDB
:1009B00011DDE068A5F10A0606EB4607072606FAF0
:1009C00007F18843A5F10A0606EB460603FA06F18D
:1009D0000843E0600CE0206905EB4507072606FAAE
:1009E00007F1884305EB450603FA06F10843206149
:1009F000072A0FDA606B561E06EB86071F2606FADB
:100A000007F18843561E06EB860605FA06F10843F1
:100A1000606322E00D2A0FDA206BD61F06EB8607F3
:100A20001F2606FA07F18843D61F06EB860605FA4D
:100A300006F10843206310E0E06AA2F10D0606EB20
:100A400086071F2606FA07F18843A2F10D0606EB7A
:100A5000860605FA06F10843E062F0BD816841F0C0
:100A600080418160704700BFFEE721B1026842F01B
:100A70000102026003E0026822F001020260704796
:100A800000B58FB00121880501F0BCF84FF08060FF
:100A9000009012480190124802900020039001201B
:100AA00004900020059006904FF4006007908000AD
:100AB00008904011099040020A9000200B900120FC
:100AC0000C9000200D900E906946064800F00CF83E
:100AD00001210448FFF7C9FF0FB000BD4C220140BF
:100AE000000000201064024010B500220268134B81
:100AF0001A40CC680B6823434C6923438C69234319
:100B0000CC6923430C6A23434C6A23438C6A2343F6
:100B10004C6B23438C6B23431A430260426922F0DF
:100B20000702D1E90B3423431A4342610B69436046
:100B30004B6883608B68C36010BD00003F801CF071
:100B40007047000010B501200249087000F018F845
:100B500010BD00001800002010B5012002490870E7
:100B6000022000F00DF810BD1900002010B5012082
:100B700002490870042000F003F810BD1A0000209C
:100B80000149086070470000143C014000212349DE
:100B90008279002A3AD00A46126803689A430B46C3
:100BA0001A600A1D126803689A430B1D1A600279C5
:100BB00011440A6803681A430A60184A0832126826
:100BC00003689A43154B08331A601A1D12680368AC
:100BD0009A43124B0C331A604279102A0ED11A1F15
:100BE000126803681A430D4B08331A601A1D126805
:100BF00003681A43094B0C331A600DE00749427928
:100C000011440A6803681A430A6005E00279114436
:100C10000A6803689A430A6070470000003C01407C
:100C200010B5024600200023102A03D14FF02044C3
:100C3000636E0FE0B2F5807F02D10A4C236809E0B1
:100C4000B2F5805F03D1074C2034236802E0054CE5
:100C5000D434236803EA01048C4201D0002000E070
:100C6000012010BD840000A00021D0E900231A4318
:100C700083685B1E42EA4312C36842EA4321014A89
:100C800011607047500100A070B5002100220023C0
:100C90000024D0E901563543C6683543066935431B
:100CA0004669354386693543C6693543066A354327
:100CB000466A45EA0601056835B90568AD00A5F143
:100CC000C045C5F840110DE0D0E907563543466AE6
:100CD00045EA0603294D2B600568AD00A5F1C04526
:100CE000C5F84011056835BB856A2D686D1E866A9A
:100CF0007668761E45EA0616856AAD686D1E46EA78
:100D00000526856AED686D1E46EA0536856A2D8AD8
:100D10006D1E46EA0546856AAD8A6D1E46EA055691
:100D2000856A2D7E6D1E46EA0562144D08350668FB
:100D300045F8262020E0856A2D686D1E866A766853
:100D4000761E45EA0616856AAD686D1E46EA0526DA
:100D5000856A2D8A6D1E46EA0542856AED686D1E1C
:100D60002E03856AAD8A6D1E46EA0554034D08358B
:100D70002C60066845F8262070BD0000400100A0E8
:100D80000449096841EA40014FF02042C2F8541179
:100D900070470000540100A0F0B50A46002100236E
:100DA000002400BF3DE0012505FA01F3156805EABE
:100DB00003049C4234D105684F000326BE40B5436E
:100DC000056015794E00B540066835430560157914
:100DD000012D02D01579022D16D185684F0003260A
:100DE000BE40B543856055794E00B54086683543B1
:100DF0008560456801268E40B54345604568967913
:100E00008E40B6B235434560C5684F000326BE40EC
:100E1000B543C560D5794E00B540C6683543C56059
:100E2000491C1029BFD3F0BDF0B5002300244D07A5
:100E3000ED0E02FA05F3CE1000F1200555F826500C
:100E40004E07F70E0F26BE40B543CF1000F1200627
:100E500046F82750CE1000F1200555F8265045EAF7
:100E60000304CE1000F1200545F82640F0BD0246EF
:100E7000002013690B400BB1012000E000207047F7
:100E800041837047018370470AB1018300E04183C9
:100E9000704700BFFEE700001CB501216F2000F085
:100EA000B1FE0E2203215048FFF7BEFF0E2204219F
:100EB0004D48FFF7B9FF0E2206214B48FFF7B4FF5C
:100EC0000E220B214848FFF7AFFF0E220C214648A7
:100ED000FFF7AAFF41F65800009002208DF80500A8
:100EE0008DF8040000208DF806008DF80700694693
:100EF0003D48FFF751FF092200213C48FFF794FFCE
:100F0000092201213948FFF78FFF0E2208213748B7
:100F1000FFF78AFF0E2209213448FFF785FF0E22D2
:100F20000A213248FFF780FF0E220B212F48FFF7DE
:100F30007BFF40F60370009069462C48FFF72CFFBA
:100F40000E2206212A48FFF76FFF0E2207212848AC
:100F5000FFF76AFF0E220A212548FFF765FF4FF4CD
:100F60009860009069462248FFF716FF0E22032181
:100F70002048FFF759FF0E2206211E48FFF754FFB5
:100F80004820009069461B48FFF706FF0E220A2101
:100F90001948FFF749FF4FF48060009069461648F2
:100FA000FFF7FAFE0E2206211448FFF73DFF0E223E
:100FB00007211248FFF738FF09220A210F48FFF7DF
:100FC00033FF0E220B210D48FFF72EFF09220C21C3
:100FD0000A48FFF729FF4FF4E6500090694607489A
:100FE000FFF7DAFE1CBD00000000024000040240D2
:100FF00000080240000C02400014024000180240A9
:1010000010B5044624B904210448FFF739FF03E072
:1010100004210248FFF736FF10BD0000000802401F
:101020000146002000BF04E0044B1B6823F81010A9
:10103000401CB0F5A02FF7D3704700007C000020C3
:1010400030B50546002409E020222146284600F05C
:1010500047F8094800688088204484B2F02C09DAF7
:10106000054800688088204480B20349096889885F
:101070008842E9DA30BD0000740000201CB501216F
:101080000C2000F0BFFD0420009002208DF8050028
:1010900001208DF8040000208DF806008DF807006F
:1010A00069460848FFF778FE4FF400500090694603
:1010B0000548FFF771FE01220421024800F006F8FE
:1010C0001CBD000000080240000C024070B5044640
:1010D0000D461646324629462046FFF7D5FE70BD1E
:1010E00070B505460E461446A4F12000C4B2074868
:1010F0000068016805480068C088604301EB400251
:101100003146284600F07AF870BD000074000020D7
:1011100070B52DED048B86B004460D46B0EE408AC6
:10112000164618EE100AFFF7A2F941EC190B8DEDE7
:10113000009B324606A102A801F07AFB02AA2946CA
:10114000204600F009F806B0BDEC048B70BD00002D
:10115000252E2A66000000002DE9F04106460C46C7
:1011600015461BE000F0B6F88088604387B200F0B7
:10117000B1F8C08870431FFA80F82A783946404693
:10118000FFF7AEFF601C84B200F0A4F880886043D3
:10119000F02802DB0024701C86B26D1C2878002821
:1011A000E0D1BDE8F081000070B506460C46002590
:1011B0000AE0227829463046FFF792FF0E48006881
:1011C0008088284485B2641CF02D14DA0A4800682F
:1011D0008088284480B2084909688988884201DBF0
:1011E000012000E00020217809B1012100E0002168
:1011F00008400028DDD170BD740000202DE9F041C9
:1012000004460D46134600BF002200BF0020C4EB79
:1012100004177E01284400214DE000223FE0294FC1
:101220003F68BF884FF00C0C97FBFCF74FEAC70CE8
:10123000802707FA0CF7174133F811C007EA0C07AB
:1012400027B9204F3F68BF880C2F0DDD33F8117090
:101250004FF0010C0CFA02FC07EA0C078FB9194F8A
:101260003F68BF880C2F0CDD174F3F88DFF85CC04C
:10127000DCF800C04FF0020808FB00CC2CF8067028
:101280000BE0134F3F88DFF844C0DCF800C04FF09C
:10129000020808FB00CC2CF80670401C521C094FB9
:1012A0003F68BF889742BAD8064F3F68BF88C7F1EA
:1012B000F0073844491C034F3F68FF888F42ACD881
:1012C000BDE8F081740000207A0000207C0000203E
:1012D000780000200148006870470000740000207A
:1012E00000B58FB0FFF7CAFE0020FFF789FE01208E
:1012F000FFF786FE00F0DAF900F092F80121880687
:1013000000F0C0FC0121C80500F07CFCFFF7C4FD23
:1013100000F018FE002000900190029003900C90C5
:101320000D900E9004220721C02000F0FDFC4FF428
:10133000003000F0E7FC012000F0F0FC00BF3D2091
:1013400000F0C0FC0028FAD009200490012005908C
:101350001D2006900320079040F20D10089040F2E7
:101360004310099040F217100A9040F247100B907A
:10137000684600F097FA0FB000BD000000B591B0CC
:101380001E20019040F20D1002900420039040F2C4
:101390004310049002200590FF2006900020079043
:1013A000089009900A904FF480600B9005200C90F3
:1013B00040F2E3100E90C01E0F904FF4A0701090FA
:1013C0004FF050400D9001A9124800F03AFB12482E
:1013D0000D904FF4C0600B9007200C9001A90D48B0
:1013E000803000F02EFB012000F0B6FB01210948FF
:1013F00000F01CFB01210748803000F017FB0120A2
:1014000000F0AAFB054800F0BBF9012000F038FA13
:1014100011B000BD84680140000005D054000020D8
:1014200010B5CA2000F0C8F9C32000F0EBF908207D
:1014300000F0E8F9502000F0E5F9CF2000F0BCF909
:10144000002000F0DFF9C12000F0DCF9302000F0CE
:10145000D9F9ED2000F0B0F9642000F0D3F90320B1
:1014600000F0D0F9122000F0CDF9812000F0CAF987
:10147000E82000F0A1F9852000F0C4F9002000F078
:10148000C1F9782000F0BEF9CB2000F095F93920A1
:1014900000F0B8F92C2000F0B5F9002000F0B2F906
:1014A000342000F0AFF9022000F0ACF9F72000F092
:1014B00083F9202000F0A6F9EA2000F07DF9002051
:1014C00000F0A0F9002000F09DF9B12000F074F9BF
:1014D000002000F097F91B2000F094F9B62000F0EE
:1014E0006BF90A2000F08EF9A22000F08BF9C020E1
:1014F00000F062F9102000F085F9C12000F05CF9DD
:10150000102000F07FF9C52000F056F9452000F0CA
:1015100079F9152000F076F9C72000F04DF99020F8
:1015200000F070F9362000F047F9C82000F06AF9A1
:10153000F22000F041F9002000F064F9B02000F042
:101540003BF9C22000F05EF9B62000F035F90A2020
:1015500000F058F9A72000F055F9272000F052F9C3
:10156000042000F04FF92A2000F026F9002000F0B6
:1015700049F9002000F046F9002000F043F9EF207F
:1015800000F040F92B2000F017F9002000F03AF9A4
:10159000002000F037F9012000F034F93F2000F07E
:1015A00031F9F62000F008F9012000F02BF90020B5
:1015B00000F028F9062000F025F92C2000F0FCF8B6
:1015C000C82001F0B7FD262000F0F6F8012000F059
:1015D00019F9E02000F0F0F80F2000F013F92920AD
:1015E00000F010F9242000F00DF90C2000F00AF9A9
:1015F0000E2000F007F9092000F004F94E2000F059
:1016000001F9782000F0FEF83C2000F0FBF80920FA
:1016100000F0F8F8132000F0F5F8052000F0F2F8DB
:10162000172000F0EFF8112000F0ECF8002000F097
:10163000E9F8E12000F0C0F8002000F0E3F81620FF
:1016400000F0E0F81B2000F0DDF8042000F0DAF8EC
:10165000112000F0D7F8072000F0D4F8312000F076
:10166000D1F8332000F0CEF8422000F0CBF805206E
:1016700000F0C8F80C2000F0C5F80A2000F0C2F80D
:10168000282000F0BFF82F2000F0BCF80F2000F059
:10169000B9F8112000F090F8C82001F04BFD292086
:1016A00000F08AF82C2000F087F810BD00B587B054
:1016B0000121202000F0A6FA0121080500F0E2FA3D
:1016C0008020009001208DF8050002208DF8040094
:1016D00000208DF8060002208DF807006946264894
:1016E000FFF75AFB4FF48070009069462248FFF7DD
:1016F00053FB4FF40070009069461F48FFF74CFB06
:10170000052207211C48FFF78FFB052208211A48F4
:10171000FFF78AFB052209211748FFF785FB1748C9
:1017200000F0B4FC1548008800F0400010BB002019
:10173000ADF808004FF48270ADF80A000020ADF853
:101740000C00ADF80E00ADF810004FF40070ADF8CD
:1017500012001820ADF814000020ADF81600072084
:10176000ADF8180002A9054800F0F3FC0121034878
:1017700000F080FC07B000BD0014024000500140A2
:1017800001490860704700007400002038B94FF02C
:101790005041064A11600021054A116005E00549E3
:1017A000024A11600121024A116070477C0000204A
:1017B00080000020000005D010B5044600224FF440
:1017C00000510E48FFF782FC0020FFF719FC21466C
:1017D0000B4800F0BCFC00BF0221094800F0AEFC41
:1017E0000028F9D000BF8021054800F0A7FC0028A0
:1017F000F9D10120FFF704FC10BD0000000C0240ED
:101800000050014010B50446012251030D48FFF776
:101810005DFC0020FFF7F4FB21460B4800F097FC2D
:1018200000BF0221084800F089FC0028F9D000BF61
:101830008021054800F082FC0028F9D10120FFF743
:10184000DFFB10BD000C02400050014010B500202D
:1018500000F09EFC012000F09BFC10BD30B1074958
:10186000096841F00101054A116005E00349096872
:1018700021F00101014A1160704700001868014021
:1018800030B10749096841F48031054A116005E02B
:101890000349096821F48031014A11607047000052
:1018A00018680140F0B50021002200230024002523
:1018B00000265B4F3F68DFF86CC107EA0C07DFF8D2
:1018C00060C1CCF80070078A390467463F68D0F8D9
:1018D00014C04CEA010C47EA0C07DFF844C1CCF80D
:1018E00000700CF104073F68DFF838C107EA0C0705
:1018F000DFF82CC10CF1040CCCF80070078B3A0413
:1019000067463F68D0F81CC04CEA020C47EA0C0757
:10191000DFF80CC10CF1040CCCF800700CF10407DA
:101920003F68DFF800C107EA0C07DFF8F4C00CF1EC
:10193000080CCCF80070078C3B0467463F68D0F871
:1019400024C04CEA030C47EA0C07DFF8D4C00CF1C2
:10195000080CCCF800700CF104073F68DFF8C4C035
:1019600007EA0C07DFF8B8C00CF10C0CCCF80070DB
:10197000078D3C046746D7F800C0C76A27434CEA86
:10198000070C274F0C37C7F800C03F1D3F68DFF832
:1019900098C007EA0C07DFF888C00CF1100CCCF8EF
:1019A0000070D0E9007C47EA0C07D0F808C047EA8D
:1019B0000C07D0F80CC047EA0C07DFF864C00CF144
:1019C000100CDCF800C047EA0C07DFF854C00CF13B
:1019D000100CCCF80070476B3D02078E3E04104F90
:1019E00024373F6807F07F47DFF834C00CF1240C40
:1019F000CCF8007046EA0507D0F838C047EA0C0773
:101A0000DFF81CC00CF1240CDCF800C047EA0C071E
:101A1000DFF80CC00CF1240CCCF80070F0BD000015
:101A20000868014000F800F08F88FE0F21B10268BD
:101A300042F00102026003E0026822F0010202604B
:101A400070472DE9F04100240025002600220027E0
:101A50000023B1F804C04FEA0C44D0F804C00CF4E1
:101A6000704CC0F804C0D1F800C04CEA040CC0F8B7
:101A700004C0B1F80CC04FEA0C45D0F808C00CF413
:101A8000704CC0F808C0D1F808C04CEA050CC0F88A
:101A900008C0D0F810C02CF0070CC0F810C0D1F866
:101AA00010C0C0F810C0D1F81CC04FEA0C26B1F825
:101AB00020C04FEA0C4291F824C04FEA0C67D0F8DE
:101AC00018C09C46C0F818C0D1F818C04CEA060CE3
:101AD0004CEA020C4CEA070CC0F818C0D0F814C04D
:101AE0002CF0FF0CC0F814C0D1F814C0C0F814C01A
:101AF000D0F81CC040F207782CEA080CC0F81CC0D3
:101B0000D1E90AC84CEA080CC0F81CC0D0F828C0BB
:101B10009C46C0F828C0D1F830C0C0F828C0B1F841
:101B200038C04FEA0C43D0F82CC00CF0E02CC0F8C1
:101B30002CC0D1F834C04CEA030CC0F82CC0D0F84B
:101B400030C06FF30A0CC0F830C0D1F83CC0C0F808
:101B500030C0BDE8F0810000014908607047000016
:101B60002468014000BFFEE77047000070B5002107
:101B700000230F22C4781CB3174C246804F4E064DB
:101B8000C4F5E064C4F30721C1F10404E3B20A41DF
:101B900044789C40E1B28478144021430C07210E24
:101BA0000E4C05786155047804F01F050124AC4003
:101BB00005786D11AD0005F1E025C5F8004109E09B
:101BC000047804F01F050124AC40054D0678761119
:101BD00045F8264070BD00000CED00E000E400E098
:101BE00080E100E010B50121002000F0F7FA10BDFF
:101BF00010B500F093FC00F0B5FC00F0CFFC10BD78
:101C00007047000029B1064A12680243044B1A606B
:101C100004E0034A12688243014B1A6070470000D7
:101C20003038024029B1064A12680243044B1A6058
:101C300004E0034A12688243014B1A6070470000B7
:101C40003838024029B1064A12680243044B1A6030
:101C500004E0034A12688243014B1A607047000097
:101C60004038024029B1064A12680243044B1A6008
:101C700004E0034A12688243014B1A607047000077
:101C80002038024029B1064A12680243044B1A6008
:101C900004E0034A12688243014B1A607047000057
:101CA0004438024029B1064A12680243044B1A60C4
:101CB00004E0034A12688243014B1A607047000037
:101CC0002438024010B501460022002300204A11AA
:101CD000012A02D10A4C236808E0022A03D1084CE9
:101CE0007034236802E0064C7434236801F01F024C
:101CF000012494401C400CB1012000E0002010BDE4
:101D00000038024001460020034A106820F44030A9
:101D100008431060704700008C3802400149086792
:101D2000704700000000474210B5830143EA016399
:101D300043EA0273014C236010BD00008838024062
:101D40001CB501217E20FFF75DFF02208DF8040005
:101D50008DF8050000208DF806008DF807000C2294
:101D600005217248FFF760F80C2206216F48FFF743
:101D70005BF86020009069466C48FFF70DF80C2274
:101D800000216B48FFF750F8012000906946684831
:101D9000FFF702F80C2200216648FFF745F80C22F5
:101DA00001216448FFF740F80C2208216148FFF741
:101DB0003BF80C2209215F48FFF736F80C220A2174
:101DC0005C48FFF731F80C220E215A48FFF72CF837
:101DD0000C220F215748FFF727F84CF203700090B0
:101DE00069465448FEF7D8FF0C2200215248FFF7FD
:101DF0001BF80C2201215048FFF716F80C2207218E
:101E00004D48FFF711F80C2208214B48FFF70CF85A
:101E10000C2209214848FFF707F80C220A214648FE
:101E2000FFF702F80C220B214348FEF7FDFF0C22BE
:101E300011464148FEF7F8FF0C220D213E48FEF7FF
:101E4000F3FF0C220E213C48FEF7EEFF0C220F217F
:101E50003948FEF7E9FF4FF683700090694636482F
:101E6000FEF79AFF0C2200213448FEF7DDFF0C221A
:101E700001213248FEF7D8FF0C2202212F48FEF73D
:101E8000D3FF0C2203212D48FEF7CEFF0C220421A4
:101E90002A48FEF7C9FF0C2205212848FEF7C4FF97
:101EA0000C220B212548FEF7BFFF0C2211462348C8
:101EB000FEF7BAFF0C220D212048FEF7B5FF0C22D9
:101EC0000E211E48FEF7B0FF0C220F211B48FEF723
:101ED000ABFF4FF63F00009069461848FEF75CFFE5
:101EE0000C2200211648FEF79FFF0C220121144806
:101EF000FEF79AFF0C2204211148FEF795FF0C22F1
:101F000005210F48FEF790FF0C2208210C48FEF730
:101F10008BFF0C220F210A48FEF786FF48F2331090
:101F2000009069460648FEF737FF1CBD00040240DA
:101F300000080240000C0240001002400014024061
:101F40000018024000B593B0FFF7FAFE01210846E1
:101F5000FFF768FE02200190072002900420039002
:101F60000720049002200590069007900120089019
:101F70000020099004200A9010200B9040200C9023
:101F80004FF4C0700D9000200E904FF400600F9041
:101F9000002010904FF40050119001A8129008A852
:101FA000FEF772FE00F002F813B000BD1FB500246A
:101FB0000120009008200190012002900020039051
:101FC00000BF20210120FEF72BFE0028F9D1684632
:101FD000FEF74AFE0A2001F0BBF80220009008201C
:101FE0000190012002900020039000BF20210120D9
:101FF000FEF716FE0028F9D16846FEF735FE0320ED
:10200000009008200190042002900020039000BF5F
:1020100020210120FEF704FE0028F9D16846FEF7D2
:1020200023FE00BF20210120FEF7FAFD0028F9D190
:102030006846FEF719FE40F2312404200090082083
:10204000019001200290039400BF20210120FEF79F
:10205000E7FD0028F9D16846FEF706FE40F26A5017
:10206000FEF78EFE00BF20210120FEF7D9FD0028DB
:10207000F9D11FBD21B1028842F04002028004E084
:1020800002884FF6BF731A400280704710B50446AD
:102090002448844208D101218014FFF703FE002167
:1020A000A014FFF7FFFD3CE01F48844208D1012146
:1020B0000014FFF7D7FD00212014FFF7D3FD30E017
:1020C0001A48844208D10121C013FFF7CBFD00213B
:1020D000E013FFF7C7FD24E01548844208D1012131
:1020E0004014FFF7DFFD00216014FFF7DBFD18E06F
:1020F0001048844209D101210805FFF7D3FD0021D2
:102100004FF48010FFF7CEFD0BE00B48844208D15E
:1021100001214805FFF7C6FD00214FF40010FFF72D
:10212000C1FD10BD0030014000380040003C0040BF
:10213000003401400050014000540140024600209C
:1021400013890B400BB1012000E000207047818112
:10215000704710B50022028802F441520B884C8867
:1021600023438C882343CC8823430C8923434C8905
:1021700023438C892343CC8923431A430280838BD6
:102180004FF2FF74234083830B8A038210BD00004B
:102190001CB504460E4951F824000121FFF732FD19
:1021A0000C4830F81400009001208DF80400002045
:1021B0008DF8060001208DF8070002208DF805003B
:1021C000054951F824006946FEF7E6FD1CBD0000F4
:1021D000C8350008C43500084400002030B585B07B
:1021E00004460D46214951F824000121FFF70AFD5C
:1021F00001218803FFF746FD00208DF81000022022
:102200008DF813001A4830F814000390194951F85A
:10221000240003A9FEF7C0FD012D24D1164A115D4B
:10222000164A105D00F032F8154830F8140001909D
:1022300000208DF8080008208DF8090001208DF895
:102240000A0001A8FEF7A2FC0E48005D8DF8000010
:102250000F208DF801008DF8020001208DF8030099
:102260006846FFF783FC05B030BD0000D435000898
:10227000D03500084C000020DB350008DA350008B6
:10228000D8350008DC3500087047000030B5002262
:102290008B071C0F0F2303FA04F20B4B8C1053F81F
:1022A00024309343084C8D1044F8253023468C107D
:1022B00053F824308C07240F00FA04F42343024C13
:1022C0008D1044F8253030BD083801400CB5002091
:1022D000019000904248006840F480304049086016
:1022E00000BF3F48006800F4003000900198401C97
:1022F0000190009818B90198B0F5A04FF1D1384875
:10230000006800F4003010B10120009001E00020CE
:1023100000900098012803D132483149091D086016
:102320002F484030006840F080502D49403108600F
:102330002D48006840F440402B4908602848083088
:1023400000682749083108600846006840F40040EA
:1023500008600846006840F4A05008602048006803
:1023600040F080701E49086000BF1D48006800F002
:1023700000700028F9D01C48006840F480301A49E9
:10238000086000BF1848406800F480300028F9D089
:102390001548006840F400301349086000BF124837
:1023A000406800F400300028F9D040F205700F4971
:1023B00008600B480830006820F003000849083125
:1023C00008600846006840F00200086000BF04484A
:1023D0000830006800F00C000828F8D10CBD00009F
:1023E00000380240085A400700700040003C02409C
:1023F0007047000010B51548006840F4700013499C
:1024000008601348006840F001001149086000208E
:102410000F49083108600E4800680E4908400C4911
:1024200008600D48091D0860081F006820F480201E
:10243000091F0860002006490C310860FFF746FFBD
:102440004FF0006001498039086010BD88ED00E060
:1024500000380240FFFFF6FE103000241FB50121B6
:102460000846FFF7EFFB1C208DF8000000208DF8D8
:10247000010001208DF802008DF803006846FFF787
:1024800075FB4FF6FF70029007480088ADF8040016
:102490000020ADF80C00ADF8060001A94FF0804017
:1024A00000F082F91FBD00001C00002010B50221C1
:1024B000480700F0B2F880B10221480700F09EF80A
:1024C00001F066F805480078012801D10449087038
:1024D00000214FF0804000F064F910BD2C00002076
:1024E0002D00002000B585B00020ADF800000120CF
:1024F000ADF802000848008802900020ADF80C00FA
:1025000069464FF0804000F0A3F800214FF0804072
:1025100000F0DCF805B000BD1E0000200EB5012162
:102520000220FFF78FFB0C48006801900B480088E1
:10253000ADF800000020ADF80800ADF802006946D3
:10254000074800F031F90121054800F04BF801215E
:10255000034800F056F80EBD2400002020000020A3
:102560000004004000B585B06020ADF800000120F7
:10257000ADF802000748006802900020ADF80C009A
:102580006946054800F0ACF80021034800F0FAF86D
:1025900005B000BD28000020000400401CB501214A
:1025A0000220FFF74FFB01210846FFF72BFB80209D
:1025B000009002208DF8040003208DF80500002013
:1025C0008DF8060001208DF8070069460448FEF7E3
:1025D000E3FB022207210248FEF726FC1CBD000097
:1025E0000000024021B1028842F08002028004E033
:1025F00002884FF67F731A4002807047CA430282F6
:10260000704721B1028842F00102028004E0028892
:102610004FF6FE731A400280704730B50246002024
:1026200000230024158A05EA0103958905EA0104BF
:1026300013B10CB1012000E0002030BD1AB1838934
:102640000B43838102E083898B43838170470000C1
:1026500070B5002400220023058C4FF6FE7635402D
:102660000584028C8388048B4FF68F752C40B51E31
:102670002C400D882C43751E2A408D892A434D8895
:102680002A43104DA84202D00F4DA84213D14FF655
:10269000F7752A40CD892A434FF6FB752A408D886D
:1026A0002A434FF6FF652B404FF6FF552B400D8A0E
:1026B0002B434D8A2B43838004838D6845630284BA
:1026C00070BD000000000140000401400A460021E6
:1026D000018B4FF6F77319401143018370470000D7
:1026E00070B5002400220023058C4FF6EF763540AC
:1026F0000584028C8388048B48F6FF752C404FF6C6
:10270000FF452C400D884FF6FF7606EA05252C4341
:102710004FF6DF752A408D8906EA05152A434D8854
:1027200006EA05152A43154DA84202D0144DA842C9
:102730001DD14FF67F752A40CD894FF6FF7606EA08
:1027400005152A434FF6BF752A408D8806EA051500
:102750002A434FF6FF352B404FF2FF752B400D8A71
:1027600006EA85052B434D8A06EA85052B438380BF
:1027700004838D688563028470BD00000000014001
:10278000000401400A460021018B4FF2FF731940FB
:102790004FF6FF7303EA02231943018370478163F5
:1027A000704741627047000000220288184B98422F
:1027B0000ED0184B98420BD0B0F1804F08D0164B7A
:1027C000984205D0154B984202D0154B984204D13F
:1027D0004FF68F731A404B881A43124B984207D01A
:1027E000114B984204D04FF6FF431A400B891A430D
:1027F00002804B68C3620B880385054B984202D068
:10280000044B984201D18B7A03860123838270475F
:1028100000000140000401400004004000080040A6
:10282000000C0040001000400014004000BFFEE714
:102830000FB4084B10B504A902AA039800F0DEF803
:10284000044602A9002000F070FC204610BC5DF890
:1028500014FB00002B31000802E008C8121F08C159
:10286000002AFAD170477047002001E001C1121F11
:10287000002AFBD1704700002DE9FF5F82B00021E4
:10288000DDE90430020DDDF840B0034318D044F612
:102890001050A2F2FF3242431514119801281FD0A4
:1028A000A5EB0B00401C5FEA000A4FF000064E4FFC
:1028B000DFF83891B046504615D5CAF1000413E050
:1028C000119801244AA3012801D16FEA0B01029853
:1028D000119AC0E90031C0E9024206B0BDE8F09F9C
:1028E000CBF10000DFE704460021404A491842EBE3
:1028F0000450CDE9001012E0E00707D032463B4615
:1029000040464946FDF715FD8046894632463B461E
:1029100010461946FDF70DFD06460F466410002CC3
:10292000EAD1DDE90401DDE90023BAF1000F06DA9E
:10293000FDF7FFFC42464B46FDF7FBFC05E0FDF7CB
:10294000E9FE42464B46FDF7E5FE04460E460022F0
:10295000284BFDF79FFD03D84FF0FF30014607E0FD
:102960000022254B20463146FDF73CFCFDF741FF98
:10297000102409E0002C0ADB0A220023FDF7D4FD15
:10298000039B30321A55641E50EA0102F2D1641CD6
:10299000039AC4F111031444119A012A03D00122AD
:1029A00008430DD10AE0084304D000204FF0110B7A
:1029B000119072E7A3EB0B056D1E0DE05B4504DD86
:1029C0004FF0000205F1010504E003DA4FF00002C8
:1029D000A5F10105002AECD002981199C0E9023155
:1029E000C0E9004579E70000000014400000F03F16
:1029F000300000000000F0430000E03F2DE9FF4FF1
:102A000095B09B468946064600250FE2252877D1DA
:102A100000242746F84A0121059400E0044316F8F3
:102A2000013F203B01FA03F01042F7D130782A2809
:102A300011D06FF02F033078A0F13002092A16D898
:102A4000059A44F0020402EB820203EB42021044B6
:102A5000761C0590EFE759F8042B0592002A03DA5B
:102A6000504244F40054059044F00204761C30783F
:102A70002E2816D116F8010F44F004042A280DD090
:102A80006FF02F023078A0F13003092B09D807EB43
:102A9000870302EB4303C718761CF3E759F8047B5E
:102AA000761C30786C280FD006DC4C2817D06828AC
:102AB0000DD06A2814D104E0742810D07A280FD1E0
:102AC0000DE044F400140AE044F4801401E044F4FE
:102AD00040147278824202D104F58014761C761C70
:102AE000307866280BD013DC582877D009DC002812
:102AF00075D04528F6D04628F4D047281AD19DE154
:102B000018E0632835D0642879D0652812D195E182
:102B1000702873D008DC6728F1D069286FD06E2840
:102B20000DD06F2806D1B5E073282CD0752875D04C
:102B3000782874D05A46179990476D1C75E1C4F3F4
:102B40000250022809D003280DD0D9F8001004281B
:102B50000DD00D6009F1040967E1D9F80010EA17FA
:102B6000C1E90052F6E7D9F800100D80F2E70D70C8
:102B7000F0E719F8041B8DF8001000208DF8010013
:102B8000EA46012003E059F804AB4FF0FF3061073B
:102B90004FF0000102D40DE008F101018846B9426E
:102BA0000FDA8045F8DB1AF808100029F4D108E0A4
:102BB00008F1010188468142FADB1AF80810002961
:102BC000F6D105985B46A0EB080721463846179AD0
:102BD00000F094FA284400EB080507E04DE029E1F5
:102BE0000DE01AF8010B5A4617999047B8F1010801
:102BF000F7D25B4621463846179A13E142E00A2293
:102C00000092C4F302524FF0000A022A08D059F889
:102C100004CB032A4FEAEC710AD00DE029E02AE048
:102C200009F1070121F00702F2E802C1914609E02B
:102C30000FFA8CFC4FEAEC71042A03D14FFA8CFC9A
:102C40004FEAEC71002907DA0A460021DCF1000C9A
:102C500061EB02012D2202E0220504D52B228DF822
:102C60000420012203E0E20701D02022F7E790468A
:102C700059E00A2102E010220DE010214FF0000A75
:102C800000910BE010224FF0000A44F004040827E2
:102C9000009203E008224FF0000A0092C4F30252AF
:102CA000022A05D059F804CB0021032A08D009E0F4
:102CB00009F1070121F00702F2E802C1914605E09F
:102CC0001FFA8CFC042A01D10CF0FF0C4FF0000815
:102CD000220728D5702806D0009B83F0100353EA02
:102CE0000A0305D00EE040228DF80420012208E0FE
:102CF0005CEA010206D030228DF804208DF8050030
:102D000002229046009B83F0080353EA0A030AD18B
:102D10005CEA010201D1620705D530228DF804205A
:102D20004FF001087F1E582804D034A003900EA84D
:102D300002900DE036A0F9E753466046009AFDF791
:102D4000F3FB84460398825C0298401E0290027056
:102D50005CEA0100F0D1029806A9081A00F1200AE5
:102D6000600702D524F4803400E00127574502DDD6
:102D7000A7EB0A0000E0002000EB0A010090059894
:102D80004144401A0590E00306D45B462146179A59
:102D9000059800F0B3F90544002706E001A85A465B
:102DA000C05D179990476D1C7F1C4745F6DBE0031B
:102DB0000CD55B462146179A059800F09FF905440B
:102DC00004E030205A46179990476D1C0099481E20
:102DD00000900029F5DC08E0029802995A46007834
:102DE000491C0291179990476D1CBAF10001AAF194
:102DF000010AF1DC65E100000928010030313233BD
:102E00003435363738396162636465660000000026
:102E10003031323334353637383941424344454610
:102E20000000000000F058F90544761C30780028B6
:102E30007FF4ECAD19B02846BDE8F08F620700D4EE
:102E4000062709F1070222F0070CFCE80223E146FD
:102E500003F000485FEA080C02D00FF2702C0DE07E
:102E60005FEA045C02D50FF2682C07E05FEAC47CDD
:102E700002D00FF2602C01E0AFF2700C4FF0FF387F
:102E800023F00043CDF850C065280CD006DC45285F
:102E900009D046281DD047283DD13DE0662818D0EE
:102EA00067287ED138E00021112F01DB112000E0DE
:102EB000781CCDE9000106A90EA8FFF7DDFCDDE9CD
:102EC0000F010E9A03910021009207F1010A04916B
:102ED0004DE04FF000400097CDE9011006A90EA883
:102EE000FFF7CAFCDDE90F0203920E9B1199002245
:102EF000DDF80CA00093049211B9791C00EB010AD3
:102F0000B7EB0A0004D4C0F1FF3007F1010A0490C6
:102F1000AAEB0700019044E0012F00DA012700210D
:102F2000112F01DD112000E03846CDE9000106A98E
:102F30000EA8FFF7A1FCDDE90F010E9A0391002115
:102F400004910092BA4621070CD40399514500DA46
:102F50008A46BAF1010F05DD009AAAF10101515C20
:102F6000302908D0B84202DA10F1040F06DA012144
:102F7000CDE9011015E0AAF10101E9E7002805DC1F
:102F8000049901440491AAEB000102E0411C51455F
:102F900000DD8A460499401A401C01904FF0004021
:102FA0000290200704D40198504501DBCDF804803D
:102FB00000208DF84F0002980DF14F07B0F1004F3F
:102FC00025D02B200E9002984FF0020800280CDA32
:102FD000404202902D200E9007E00A210298FDF752
:102FE0008DFA3031029007F8011DB8F10001A8F107
:102FF0000108F2DC02980028EFD1791E0E980870C3
:10300000307800F0200040F0450007F8020D12A8CB
:10301000C01B00F107081498007800B1012000EBF4
:103020000A01019801EBE07105984144401A401EE5
:103030000590E00306D45B462146179A059800F0F8
:103040005DF805441498007818B15A4617999047CE
:103050006D1CE00324D55B462146179A059800F0C5
:103060004DF805441CE00498002807DBDDE9030166
:10307000884203DD0098405C179901E017993020E1
:103080005A469047049805F10105401C04900198A8
:10309000401E019004D12E205A46179990476D1C6E
:1030A000BAF10001AAF1010ADDDC05E017F8010B15
:1030B0005A46179990476D1CB8F10001A8F1010814
:1030C000F4DC5B462146179A0598ABE62D0000001C
:1030D0002B000000200000002DE9F04104460025EF
:1030E0001E461746880404D405E039462020B04720
:1030F0006D1C641EF9D52846BDE8F0812DE9F0412C
:10310000044600251E469046C80301D5302700E03E
:103110002027880404D505E041463846B0476D1C99
:10312000641EF9D52846BDE8F0810A68531C0B607F
:103130001070704701B581B0002000900198009098
:1031400002E00098401E009000980028F9D10CBDC4
:1031500001B581B0002000900549019848430090D6
:1031600002E00098401E009000980028F9D10CBDA4
:10317000A086010000B585B001210420FEF742FDC4
:1031800001218803FEF77EFD00208DF80400012058
:103190008DF80700022000908DF80500694612485E
:1031A000FDF7FAFD01210220FFF770F802200390DD
:1031B00000208DF810000C208DF8110001208DF8F2
:1031C000120003A8FDF7E2FC07208DF8080001209B
:1031D0008DF809008DF80A008DF80B0002A8FEF7A3
:1031E000C5FC05B000BD00000008024000B585B078
:1031F00001210820FEF706FD01218803FEF742FDAC
:1032000000208DF8040001208DF8070004200090B4
:1032100069461248FDF7C0FD02210320FFF736F88A
:103220000420039000208DF8100010208DF811006C
:1032300001208DF8120003A8FDF7A8FC08208DF8E6
:10324000080001208DF809008DF80A008DF80B00A8
:1032500002A8FEF78BFC05B000BD0000000C024088
:1032600010B52DED028B08480088FDF7D4F841EC2D
:10327000180B9FED060B53EC102BFDF75AF8054A7F
:1032800003C2BDEC028B10BD00000020740CC85EB0
:10329000EFFE983F080000202DED068BFFF76AFF38
:1032A000FFF7A4FFFEF79EFCFEF7D0FAFEF718F832
:1032B000FEF764F80120FEF7D1FA0120FEF766FA66
:1032C00001210020FEF78AFF9148006840084FF472
:1032D0007A71B0FBF1F0401E8E4908808C4800687E
:1032E00040084CF25031B0FBF1F0401E8A49088092
:1032F000FFF7B4F8FFF7F6F8012202214807FFF7BD
:103300009DF901218807FFF77CF9FDF7C1FAFDF768
:10331000B7FBFEF76DFC8148FDF7A0FB4FF6FF7091
:10332000FDF77EFEFDF7D6FF00247DA12046FDF7C8
:103330003BFF7FA200210220FDF70EFF80A20021AB
:103340000520FDF709FF824890ED000B51EC100BB2
:10335000FDF7B8F808EE100A0222B0EE480A012183
:103360000620FDF7D5FED1E07A48007810B101289B
:103370007DD155E078480078012803D0774800785F
:10338000012807D100207449087074490870012091
:10339000704908706E4890ED000B53EC102B70488C
:1033A00090ED000B51EC100BFDF774F82FD268482C
:1033B00090ED000B53EC102B694890ED000B51EC95
:1033C000100BFCF7B0FF41EC1A0B9FED660B53ECB2
:1033D000102BFCF7AEFF41EC190B9FED640B53EC87
:1033E000102BFCF7FFFE41EC180BFDF721F86149AB
:1033F000086008460068B0F57A7F02DD4FF47A7005
:1034000008605C4801685C48FFF7C9F907E00020E4
:1034100058490860084601685748FFF7C0F974E04A
:103420002FE05648007801282BD10020534908701E
:103430009FED530B53EC102B454890ED000B51ECD6
:10344000100BFCF7CFFE424A03C2FDF743FFC088D2
:1034500000EB40004004040C2046FDF7F1FD3C4821
:1034600090ED000B51EC100BFDF72CF800E04BE059
:1034700008EE100A0222B0EE480A01210620FDF7EC
:1034800047FE02214048FDF7F2FC0028C9D02DE09C
:103490003A480078012829D10020384908709FED6A
:1034A000380B53EC102B2A4890ED000B51EC100B0D
:1034B000FCF739FF264A03C2FDF70CFFC08800EB7A
:1034C00040004004040C2046FDF7BAFD204890ED72
:1034D000000B51EC100BFCF7F5FF08EE100A02226E
:1034E000B0EE480A01210620FDF712FE042127480C
:1034F000FDF7BDFC0028CBD0002017490870174904
:1035000008701449087000E000BF00BF2CE70000FD
:10351000300000201C00002020000020002201407C
:1035200050574D2046616E20636F6E74726F6C0051
:1035300043757272656E742054656D703A000000B8
:1035400053657420506F696E742054656D703A0035
:10355000100000202C000020190000201A0000207C
:10356000080000200000000000005940000000009A
:1035700000407F4028000020000400402D00002073
:10358000000000000000F03F00080240000C024074
:1035900010B52DED028BFFF763FE094890ED000B8F
:1035A00051EC100BFCF78EFF08EE100A0222B0EE71
:1035B000480A01210320FDF7ABFDBDEC028B10BDD5
:1035C00008000020002000404000000040000000F3
:1035D00001000000010000000100000006000000E2
:1035E00000000000000000000000000000000000DB
:1035F00000000000000000000000000000000000CB
:1036000000000000000000000000000000000000BA
:1036100080018001800180018001800180018001A2
:103620008001800180018001800100000000800194
:103630008001000000000000000000000000000009
:103640000000CC00CC00CC00CC00CC00CC000000B2
:10365000000000000000000000000000000000006A
:10366000000000000000000000000000000000005A
:1036700000000000000000000000600C600C600C06
:1036800030063006FE1FFE1F300638071803FE1FE7
:10369000FE1F180318038C018C018C010000000030
:1036A0008000E003F80F9C0E8C1C8C188C00980096
:1036B000F801E007800E801C8C188C189C18B80C40
:1036C000F00FE00380008000000000000000000018
:1036D000000000000E181B0C110C1106110611033E
:1036E00011039B018E01C038C06C604460443044BB
:1036F00030441844186C0C38000000000000000032
:10370000E001F0033807180618063003F001F00056
:10371000F8009C310E33061E061C061C063FFC7387
:10372000F021000000000000000000000000000088
:1037300000000C000C000C000C000C000C00000041
:103740000000000000000000000000000000000079
:103750000000000000000000000000000000000069
:10376000000200038001C000C00060006000300063
:103770003000300030003000300030003000600099
:103780006000C000C00080010003000200000000D3
:1037900020006000C00080018001000300030006DB
:1037A00000060006000600060006000600060003EC
:1037B000000380018001C0006000200000000000C4
:1037C00000000000000000000000C000C000D8069B
:1037D000F807E00130033807000000000000000097
:1037E00000000000000000000000000000000000D9
:1037F0000000000000000000000080018001800146
:1038000080018001FC3FFC3F80018001800180013C
:103810008001000000000000000000000000000027
:103820000000000000000000000000000000000098
:103830000000000000000000000000000000000088
:1038400080018001000100018000000000000000F4
:103850000000000000000000000000000000000068
:10386000000000000000E007E0070000000000008A
:103870000000000000000000000000000000000048
:103880000000000000000000000000000000000038
:103890000000000000000000000000000000000028
:1038A000C000C00000000000000000000000000098
:1038B000000C000C000600060006000300030003D5
:1038C0008003800180018001C000C000C000600052
:1038D0006000000000000000000000000000000088
:1038E000E003F007380E180C0C180C180C180C1804
:1038F0000C180C180C180C180C18180C380EF007B3
:10390000E0030000000000000000000000000000D4
:1039100000018001C001F00198018801800180014F
:10392000800180018001800180018001800180018F
:103930008001000000000000000000000000000006
:10394000E003F80F180C0C180C1800180018000CE5
:10395000000600038001C000600030001800FC1F5A
:10396000FC1F00000000000000000000000000003C
:10397000E001F807180E0C0C0C0C000C0006C0033C
:10398000C007000C001800180C180C18180CF807C9
:10399000E003000000000000000000000000000044
:1039A000000C000E000F000F800DC00C600C600CAE
:1039B000300C180C0C0CFC3FFC3F000C000C000CF5
:1039C000000C0000000000000000000000000000EB
:1039D000F80FF80F180018000C00EC03FC071C0E81
:1039E000001C0018001800180C181C0C180EF80702
:1039F000E0030000000000000000000000000000E4
:103A0000C007F00F381C181818000C00CC03EC0F7E
:103A10003C0E1C1C0C180C180C18181C380EF00747
:103A2000E0030000000000000000000000000000B3
:103A3000FC1FFC1F000C0006000600038003800131
:103A4000C001C000E0006000600070003000300085
:103A50003000000000000000000000000000000036
:103A6000E003F007380E180C180C180C3806F00795
:103A7000F007180C0C180C180C180C18380CF80F50
:103A8000E003000000000000000000000000000053
:103A9000E003F007380E1C0C0C180C180C181C1C3A
:103AA000381EF81BE0190018000C000C1C0EF8075B
:103AB000F001000000000000000000000000000015
:103AC00000000000000000000000800180010000F4
:103AD0000000000000000000000000000000800165
:103AE0008001000000000000000000000000000055
:103AF00000000000000000000000800180010000C4
:103B00000000000000000000000000000000800134
:103B100080010001000180000000000000000000A2
:103B20000000000000000000000000000000001085
:103B3000001C800FE003F8001800F800E003800F7D
:103B4000001C001000000000000000000000000049
:103B50000000000000000000000000000000F81F4E
:103B6000000000000000F81F00000000000000003E
:103B70000000000000000000000000000000000045
:103B8000000000000000000000000000000008002D
:103B90003800F001C007001F0018001FC007F00127
:103BA00038000800000000000000000000000000D5
:103BB000E003F80F180C0C180C180018000C000685
:103BC00000038001C000C000C00000000000C00071
:103BD000C000000000000000000000000000000025
:103BE0000000E00718180420C229224A11440944A1
:103BF0000944094409221113E20C02400420181858
:103C0000E0070000000000000000000000000000CD
:103C100080038003C006C006C006600C600C30182C
:103C200030183018F83FF83F1C700C600C6006C06C
:103C300006C00000000000000000000000000000BE
:103C4000FC03FC0F0C0C0C180C180C180C0CFC07CB
:103C5000FC0F0C180C300C300C300C300C18FC1F06
:103C6000FC07000000000000000000000000000051
:103C7000C007F01F38381C300C70066006000600C4
:103C8000060006000600060006600C701C30F01FDF
:103C9000E00700000000000000000000000000003D
:103CA000FE03FE0F060E0618061806300630063014
:103CB000063006300630063006180618060EFE0FCF
:103CC000FE030000000000000000000000000000F3
:103CD000FC3FFC3F0C000C000C000C000C00FC1F17
:103CE000FC1F0C000C000C000C000C000C00FC3F36
:103CF000FC3F000000000000000000000000000089
:103D0000F83FF83F18001800180018001800F81FB6
:103D1000F81F1800180018001800180018001800E4
:103D2000180000000000000000000000000000007B
:103D3000E00FF83F3C780E6006E007C00300030088
:103D400003FE03FE03C007C006C00EC03CF0F83FF0
:103D5000E00F000000000000000000000000000074
:103D60000C300C300C300C300C300C300C30FC3F74
:103D7000FC3F0C300C300C300C300C300C300C3064
:103D80000C300000000000000000000000000000F7
:103D9000800180018001800180018001800180011B
:103DA000800180018001800180018001800180010B
:103DB0008001000000000000000000000000000082
:103DC00000060006000600060006000600060006C3
:103DD0000006000600060006180618063807F0035D
:103DE000E0010000000000000000000000000000F2
:103DF00006300618060C060606038601C600660095
:103E00007600DE008E0106030606060C0618063054
:103E1000066000000000000000000000000000003C
:103E200018001800180018001800180018001800D2
:103E30001800180018001800180018001800F81FC3
:103E4000F81F00000000000000000000000000005B
:103E50000EE01EF01EF01EF036D836D836D836D812
:103E600066CC66CC66CCC6C6C6C6C6C6C6C686C343
:103E700086C30000000000000000000000000000F9
:103E80000C301C303C303C306C306C30CC30CC30A2
:103E90008C310C330C330C360C360C3C0C3C0C388F
:103EA0000C300000000000000000000000000000D6
:103EB000E007F81F1C380E70066003C003C003C083
:103EC00003C003C003C003C006600E701C38F81F97
:103ED000E0070000000000000000000000000000FB
:103EE000FC0FFC1F0C380C300C300C300C300C1854
:103EF000FC1FFC070C000C000C000C000C000C005C
:103F00000C000000000000000000000000000000A5
:103F1000E007F81F1C380E70066003E003C003C002
:103F200003C003C003C007E006630E3F1C3CF83F1C
:103F3000E0F700C0000000000000000000000000EA
:103F4000FE0FFE1F06380630063006300638FE1F0C
:103F5000FE0706030606060C06180618063006308D
:103F600006600000000000000000000000000000EB
:103F7000E003F80F1C0C0C180C180C001C00F803C4
:103F8000E00F001E0038063006300E301C1CF80F03
:103F9000E00700000000000000000000000000003A
:103FA000FE7FFE7F80018001800180018001800111
:103FB00080018001800180018001800180018001F9
:103FC0008001000000000000000000000000000070
:103FD0000C300C300C300C300C300C300C300C3001
:103FE0000C300C300C300C300C300C301818F81F22
:103FF000E0070000000000000000000000000000DA
:1040000003600630063006300C180C180C18180C1B
:10401000180C380E30063006700760036003C001CC
:10402000C0010000000000000000000000000000CF
:104030000360C361C361C36166336633663366334D
:10404000663366336C1B6C1B6C1B2C1A3C1E380EC3
:10405000380E00000000000000000000000000001A
:104060000FE00C7018303018700C600EC007800321
:104070008003C003E006700C301C18180C300E6072
:1040800007E0000000000000000000000000000049
:1040900003C006600C301C383818300C6006E0078E
:1040A000C0038001800180018001800180018001C6
:1040B000800100000000000000000000000000007F
:1040C000FC7FFC7F006000300018000C000600033D
:1040D0008001C0006000300018000C000600FE7F68
:1040E000FE7F000000000000000000000000000053
:1040F000E003E003600060006000600060006000BA
:1041000060006000600060006000600060006000AF
:104110006000600060006000E003E0030000000059
:1041200030003000600060006000C000C000C000CF
:10413000C00180018001800100030003000300062C
:104140000006000000000000000000000000000069
:10415000E003E00300030003000300030003000387
:104160000003000300030003000300030003000337
:104170000003000300030003E003E003000000006D
:104180000000C001C0016003600360033006300618
:10419000180C180C000000000000000000000000D7
:1041A000000000000000000000000000000000000F
:1041B00000000000000000000000000000000000FF
:1041C00000000000000000000000000000000000EF
:1041D000FFFFFFFF000000000000000000000000E3
:1041E0000C000C000C000C000C000C000000000087
:1041F00000000000000000000000000000000000BF
:1042000000000000000000000000000000000000AE
:1042100000000000000000000000F003F8071C0C84
:104220000C0C000FF00FF80C0C0C0C0C1C0FF80F02
:10423000F018000000000000000000000000000076
:1042400018001800180018001800D803F80F380CD0
:10425000181818181818181818181818380CF80FF3
:10426000D803000000000000000000000000000073
:1042700000000000000000000000C003F007300E46
:10428000180C1800180018001800180C300EF00751
:10429000C00300000000000000000000000000005B
:1042A00000180018001800180018C01BF01F301C60
:1042B000181818181818181818181818301CF01F83
:1042C000C01B000000000000000000000000000013
:1042D00000000000000000000000C003F00F300CE0
:1042E0001818F81FF81F180018003818301CF00FA5
:1042F000C0070000000000000000000000000000F7
:10430000800FC00FC000C000C000F007F007C00061
:10431000C000C000C000C000C000C000C000C0009D
:10432000C0000000000000000000000000000000CD
:1043300000000000000000000000E00DF80F180E63
:104340000C0C0C0C0C0C0C0C0C0C0C0C180EF80FB0
:10435000E00D000C0C0C1C06F807F001000000003A
:1043600018001800180018001800D807F80F381C9B
:1043700018181818181818181818181818181818BD
:1043800018180000000000000000000000000000FD
:10439000C000C000000000000000C000C000C0005D
:1043A000C000C000C000C000C000C000C000C0000D
:1043B000C00000000000000000000000000000003D
:1043C000C000C000000000000000C000C000C0002D
:1043D000C000C000C000C000C000C000C000C000DD
:1043E000C000C000C000C000F8007800000000005D
:1043F0000C000C000C000C000C000C0C0C060C0348
:104400008C01CC006C00FC009C018C030C030C069E
:104410000C0C000000000000000000000000000084
:10442000C000C000C000C000C000C000C000C0008C
:10443000C000C000C000C000C000C000C000C0007C
:10444000C0000000000000000000000000000000AC
:10445000000000000000000000007C3CFF7EC7E37D
:1044600083C183C183C183C183C183C183C183C12C
:1044700083C10000000000000000000000000000F8
:10448000000000000000000000009807F80F381C32
:10449000181818181818181818181818181818189C
:1044A00018180000000000000000000000000000DC
:1044B00000000000000000000000C003F00F300CFE
:1044C000181818181818181818181818300CF00F91
:1044D000C003000000000000000000000000000019
:1044E00000000000000000000000D803F80F380CA6
:1044F000181818181818181818181818380CF80F51
:10450000D803180018001800180018000000000058
:1045100000000000000000000000C01BF01F301C65
:10452000181818181818181818181818301CF01F10
:10453000C01B001800180018001800180000000028
:1045400000000000000000000000B007F003700051
:1045500030003000300030003000300030003000DB
:10456000300000000000000000000000000000001B
:1045700000000000000000000000E003F003380E1F
:10458000180C3800F003C007000C180C380EF007A8
:10459000E003000000000000000000000000000038
:1045A00000008000C000C000C000F007F007C0009D
:1045B000C000C000C000C000C000C000C000C007F4
:1045C0008007000000000000000000000000000064
:1045D000000000000000000000001818181818184B
:1045E000181818181818181818181818381CF01F48
:1045F000E0190000000000000000000000000000C2
:10460000000000000000000000000C18180C180C3E
:10461000180C300630063006600360036003C001EA
:10462000C0010000000000000000000000000000C9
:1046300000000000000000000000C141C141C36152
:104640006363636363633636363636361C1C1C1C64
:104650001C1C000000000000000000000000000022
:10466000000000000000000000001C38381C300C66
:10467000600660036003600360036006300C381C52
:104680001C380000000000000000000000000000D6
:104690000000000000000000000018303018301842
:1046A0007018600C600CE00CC006C006800380032C
:1046B000800380018001C001F00070000000000054
:1046C00000000000000000000000FC1FFC1F000CA8
:1046D000000600038001C000600030001800FC1FCD
:1046E000FC1F0000000000000000000000000000AF
:1046F00000038001C000C000C000C000C000C000B6
:1047000060006000300060004000C000C000C000D9
:10471000C000C000C00080010003000000000000D5
:104720008001800180018001800180018001800181
:104730008001800180018001800180018001800171
:104740008001800180018001800180010000000063
:104750006000C000C00180018001800180018001F3
:1047600000030003000600030001800180018001B6
:10477000800180018001C000600000000000000096
:104780000000000000000000000000000000F01029
:10479000F81F080F000000000000000000000000EB
:1047A0000000000000000000000000000000000009
:1047B00000000000000000000000000000000000F9
:1047C0000000000000000000002000200020002069
:1047D0000020002000200000002000000000000059
:1047E00000500050005000000000000000000000D9
:1047F0000000000000000000000900090012007F16
:104800000012007F001200240024000000000010AD
:104810000038005400500050003800140054005478
:104820000038001000000000803000490049004AB4
:10483000C032200520092009C0100000000000003F
:10484000000C0012001200140018002500230023A1
:10485000801D0000000000000040004000400000FB
:104860000000000000000000000000000000000048
:104870000008001000100020002000200020002070
:104880000020001000100000004000200020001058
:104890000010001000100010001000200020000088
:1048A0000020007000200050000000000000000008
:1048B00000000000000000000000000000080008E8
:1048C000007F000800080000000000000000000059
:1048D00000000000000000000000000000000000D8
:1048E0000020002000400000000000000000000048
:1048F0000000007000000000000000000000000048
:1049000000000000000000000000000000000000A7
:104910000020000000000000001000100010002027
:1049200000200020002000400040000000000000A7
:1049300000100028004400440044004400440028C3
:1049400000100000000000000010003000500010B7
:104950000010001000100010001000000000000007
:10496000003000480044000400080010002000400F
:10497000007C000000000000003000480004000837
:104980000010000800440048003000000000000053
:10499000000800180018002800280048007C0008C3
:1049A0000008000000000000003C002000400070F3
:1049B00000480004004400480030000000000000EF
:1049C0000018002400400050006800440044002803
:1049D0000010000000000000007C0004000800102F
:1049E0000010001000200020002000000000000047
:1049F000001000280044002800100028004400286F
:104A000000100000000000000010002800440044D6
:104A1000002C0014000400480030000000000000DA
:104A20000000000000200000000000000000000066
:104A30000020000000000000000000000020000036
:104A400000000000000000000020002000400000E6
:104A5000000000040008003000400030000800049E
:104A6000000000000000000000000000007C0000CA
:104A70000000007C000000000000000000000000BA
:104A80000000004000200018000400180020004032
:104A90000000000000000000003800640044000432
:104AA00000080010001000000010000000000000CE
:104AB000800F4010A02EA051205120512051205392
:104AC000C04D202040100000000800140014001405
:104AD0000022003E002200410041000000000000D2
:104AE000003C002200220022003C00220022002282
:104AF000003C000000000000000E0011002100201A
:104B00000020002000210011000E00000000000025
:104B1000003C002200210021002100210021002270
:104B2000003C000000000000003E002000200020AB
:104B3000003E002000200020003E00000000000099
:104B4000003E002000200020003C0020002000202B
:104B50000020000000000000000E001100210020D5
:104B60000027002100210011000E000000000000BD
:104B70000021002100210021003F0021002100210F
:104B80000021000000000000002000200020002084
:104B90000020002000200020002000000000000075
:104BA0000008000800080008000800080048004845
:104BB000003000000000000000220024002800282F
:104BC000003800280024002400220000000000001B
:104BD00000200020002000200020002000200020D5
:104BE000003E0000000000008020803180318031D4
:104BF000802A802A802A802A802400000000000069
:104C00000021003100310029002900250023002364
:104C10000021000000000000000C00120021002113
:104C20000021002100210012000C00000000000003
:104C3000003C002200220022003C00200020002036
:104C40000020000000000000000C001200210021E4
:104C50000021002100210016000D000100000000CD
:104C6000003E002100210021003E002400220021FE
:104C70008020000000000000001C00220022002014
:104C8000001C000200220022001C000000000000A6
:104C9000003E00080008000800080008000800089E
:104CA0000008000000000000002100210021002178
:104CB0000021002100210012000C00000000000073
:104CC00000410041002200220022001400140014C0
:104CD00000080000000000004044404A402A802AAA
:104CE000802A802A802A802A00110000000000000B
:104CF00000410022001400140008001400140022D7
:104D000000410000000000000041002200220014C9
:104D1000000800080008000800080000000000006B
:104D2000007E000200040008001000100020004077
:104D3000007E000000000000003000200020002065
:104D40000020002000200020002000200020000083
:104D50000040004000200020002000200020001023
:104D60000010000000000000006000200020002073
:104D70000020002000200020002000200020000053
:104D80000010002800280028004400000000000057
:104D90000000000000000000000000000000000013
:104DA000000000000000000000000000007E004045
:104DB00000200000000000000000000000000000D3
:104DC0000000000000000000000000000038004467
:104DD0000004003C00440044003C000000000000CF
:104DE0000040004000580064004400440044006457
:104DF00000580000000000000000000000300048E3
:104E0000004000400040004800300000000000006A
:104E1000000400040034004C004400440044004CF2
:104E200000340000000000000000000000380044D2
:104E30000044007C004000440038000000000000F6
:104E40000060004000E000400040004000400040A2
:104E50000040000000000000000000000034004C92
:104E6000004400440044004C0034000400440000AE
:104E700000400040005800640044004400440044E6
:104E8000004400000000000000400000004000401E
:104E900000400040004000400040000000000000D2
:104EA0000040000000400040004000400040004042
:104EB000004000400040000000400040004800501A
:104EC0000060005000500048004800000000000052
:104ED00000400040004000400040004000400040D2
:104EE0000040000000000000000000000052006DC3
:104EF0000049004900490049004900000000000045
:104F000000000000005800640044004400440044D5
:104F100000440000000000000000000000380044D1
:104F20000044004400440044003800000000000039
:104F30000000000000580064004400440044006485
:104F40000058004000400000000000000034004C09
:104F5000004400440044004C0034000400040000FD
:104F60000000000000500060004000400040004091
:104F70000040000000000000000000000030004879
:104F80000040003000080048003000000000000031
:104F90000040004000E00040004000400040004071
:104FA0000060000000000000000000000044004419
:104FB000004400440044004C0034000000000000A5
:104FC00000000000004400440028002800280028B9
:104FD000001000000000000000000000004900492F
:104FE000005500550055005500220000000000004B
:104FF00000000000004400280028001000280028BD
:1050000000440000000000000000000000440044D4
:1050100000280028002800100010001000100000D8
:105020000000000000780008001000200020004070
:105030000078000000000000001000200020002088
:105040000020004000200020002000200020000060
:105050000020002000200020002000200020002050
:105060000020002000200000004000200020002040
:105070000020001000200020002000200020000060
:105080000000000000000074005800000000000054
:105090000000000000000000000000700050005000
:1050A0000050005000500050007000000000000050
:1050B00000000000000000000000000000000000F0
:1050C00000000000000000000000000010001000C0
:1050D0001000100010001000000010000000000080
:1050E0000000000028002800280000000000000048
:1050F0000000000000000000000000001400140088
:105100003E00140028007C00280028000000000059
:105110000000100038005400500038001400140043
:105120005400380010000000000000004400A800F7
:10513000A800500014001A002A00240000000000FB
:10514000000000002000500050002000E8009800FF
:105150009800600000000000000000008000800057
:1051600080000000000000000000000000000000BF
:10517000000000004000800080008000800080006F
:1051800080008000800000000000000080004000DF
:10519000400040004000400040004000400000004F
:1051A000000000004000E0004000A00000000000FF
:1051B00000000000000000000000000000000000EF
:1051C00020002000F8002000200000000000000067
:1051D00000000000000000000000000000000000CF
:1051E000000040004000000000000000000000003F
:1051F000000000000000C0000000000000000000EF
:10520000000000000000000000000000000000009E
:10521000000040000000000000000000200020000E
:10522000200040004000800080008000000000005E
:10523000000000006000900090009000900090003E
:1052400090006000000000000000000020006000EE
:10525000A00020002000200020002000000000000E
:1052600000000000600090001000100020004000CE
:105270008000F000000000000000000060009000CE
:10528000100060001000100090006000000000009E
:105290000000000010003000500050009000F800A6
:1052A000100010000000000000000000700040002E
:1052B0008000E0001000100090006000000000007E
:1052C00000000000600090008000A000D00090006E
:1052D000900060000000000000000000F0001000DE
:1052E000200020002000400040004000000000009E
:1052F00000000000600090009000600090009000AE
:1053000090006000000000000000000060009000BD
:105310009000B000500010009000600000000000FD
:10532000000000000000000040000000000000003D
:10533000000040000000000000000000000000002D
:10534000400000000000000000004000400000009D
:1053500000000000000000001000600080006000FD
:10536000100000000000000000000000000000002D
:105370000000F0000000F00000000000000000004D
:1053800000000000000000008000600010006000CD
:10539000800000000000000000000000600090009D
:1053A000100020004000400000004000000000000D
:1053B000000000001C0022005B00A500A500A50065
:1053C000A5009E00410000000000000020005000E9
:1053D000500050005000700088008800000000005D
:1053E00000000000F00088008800F00088008800BD
:1053F0008800F000000000000000000038004400B9
:105400008400800080008400440038000000000018
:1054100000000000E00090008800880088008800FC
:105420009000E0000000000000000000F800800094
:105430008000F800800080008000F800000000007C
:105440000000000078004000400070004000400074
:105450004000400000000000000000003800440050
:10546000840080009C00840044003800000000009C
:1054700000000000880088008800F800880088008C
:10548000880088000000000000000000800080000C
:10549000800080008000800080008000000000000C
:1054A000000000001000100010001000100090001C
:1054B00090006000000000000000000088009000E4
:1054C000A000E000A0009000900088000000000014
:1054D00000000000800080008000800080008000CC
:1054E0008000F00000000000000000008200C60004
:1054F000C600AA00AA00AA00AA00920000000000AC
:10550000000000008400C400A400A40094009400E3
:105510008C00840000000000000000003000480003
:1055200084008400840084004800300000000000F3
:1055300000000000F000880088008800F000800073
:1055400080008000000000000000000030004800E3
:1055500084008400840084005800340004000000AB
:10556000000000007800440044007800500048002B
:1055700044004200000000000000000070008800AD
:1055800080007000080088008800700000000000A3
:1055900000000000F8002000200020002000200073
:1055A00020002000000000000000000084008400B3
:1055B0008400840084008400480030000000000063
:1055C000000000008800880050005000500050008B
:1055D0005000200000000000000000009200AA001F
:1055E000AA00AA00AA00AA00AA0044000000000025
:1055F00000000000840048004800300030004800EF
:1056000048008400000000000000000088005000F6
:10561000500020002000200020002000000000009A
:1056200000000000F80008001000200020004000EA
:105630008000F8000000000000000000C0008000B2
:1056400080008000800080008000800080000000DA
:10565000000000008000800040004000400040004A
:10566000200020000000000000000000C0004000FA
:10567000400040004000400040004000400000006A
:10568000000000004000A000A000A00000000000FA
:10569000000000000000000000000000000000000A
:1056A000000000000000000000000000F800000002
:1056B000000000008000400000000000000000002A
:1056C00000000000000000000000000000000000DA
:1056D000E0001000700090009000700000000000DA
:1056E0000000000080008000A000D000900090002A
:1056F000D000A0000000000000000000000000003A
:1057000060009000800080009000600000000000B9
:1057100000000000100010005000B0009000900049
:10572000B000500000000000000000000000000079
:1057300060009000F0008000900060000000000019
:1057400000000000C0008000C000800080008000D9
:105750008000800000000000000000000000000049
:105760005000B00090009000B00050001000000009
:105770000000000080008000A000D0009000900099
:105780009000900000000000000000008000000079
:105790008000800080008000800080000000000009
:1057A0000000000080000000800080008000800079
:1057B0008000800080000000000000008000800069
:1057C0009000A000C000A000900090000000000029
:1057D00000000000800080008000800080008000C9
:1057E00080008000000000000000000000000000B9
:1057F000A600DA00920092009200920000000000E1
:105800000000000000000000A000D0009000900008
:105810009000900000000000000000000000000068
:105820006000900090009000900060000000000078
:105830000000000000000000A000D00090009000D8
:10584000D000A00080000000000000000000000068
:105850005000B00090009000B00050001000000018
:105860000000000000000000A000C00080008000D8
:105870008000800000000000000000000000000028
:10588000E000900040002000900060000000000058
:105890000000000080008000C000800080008000C8
:1058A0008000C000000000000000000000000000B8
:1058B0009000900090009000B000500000000000A8
:1058C0000000000000000000880088005000500028
:1058D0005000200000000000000000000000000058
:1058E0009200AA00AA00AA00AA004400000000003A
:1058F0000000000000000000880050002000200090
:1059000050008800000000000000000000000000BF
:1059100088005000500050002000200020000000AF
:105920000000000000000000F00010002000400017
:105930008000F0000000000000000000C0008000B7
:105940008000800000008000800080008000000057
:105950000000000080008000800080008000800047
:10596000800080008000000000000000C0004000B7
:105970004000400020004000400040004000000087
:1059800000000000000000000000E800B00000007F
:105990000000000000000000000000000000E00027
:1059A000A000A000A000A000A000E00000000000F7
:1059B00000000000000000000000000000004000A7
:1059C0004000400040004000400000004000A000B7
:1059D000A000A00000000000000000000000000087
:1059E00024002400FE004800FC0048004800380065
:1059F00054005000380014001400540038004400D3
:105A0000A800A800500014001A002A00240010006A
:105A100028002800100074004C004C0030001000DA
:105A2000100010000000000000000000000008004E
:105A300010001000100010001000100008001000EE
:105A40000800080008000800080008001000000016
:105A50000000240018003C00180024000000000092
:105A60000000100010007C0010001000000000007A
:105A70000000000000000000080008001000000006
:105A80000000000000003C000000000000000000DA
:105A900000000000000000000000180018000800CE
:105AA000080008001000100020002000200018004E
:105AB00024002400240024002400240018000800EE
:105AC0001800280008000800080008000800380036
:105AD0004400000004000800100020007C001800B2
